{
  "contractName": "Kittycontract",
  "abi": [
    {
      "inputs": [],
      "stateMutability": "nonpayable",
      "type": "constructor"
    },
    {
      "anonymous": false,
      "inputs": [
        {
          "indexed": true,
          "internalType": "address",
          "name": "owner",
          "type": "address"
        },
        {
          "indexed": true,
          "internalType": "address",
          "name": "approved",
          "type": "address"
        },
        {
          "indexed": true,
          "internalType": "uint256",
          "name": "tokenId",
          "type": "uint256"
        }
      ],
      "name": "Approval",
      "type": "event"
    },
    {
      "anonymous": false,
      "inputs": [
        {
          "indexed": true,
          "internalType": "address",
          "name": "owner",
          "type": "address"
        },
        {
          "indexed": true,
          "internalType": "address",
          "name": "operator",
          "type": "address"
        },
        {
          "indexed": false,
          "internalType": "bool",
          "name": "approved",
          "type": "bool"
        }
      ],
      "name": "ApprovalForAll",
      "type": "event"
    },
    {
      "anonymous": false,
      "inputs": [
        {
          "indexed": false,
          "internalType": "uint256",
          "name": "_mumId",
          "type": "uint256"
        },
        {
          "indexed": false,
          "internalType": "uint256",
          "name": "_dadId",
          "type": "uint256"
        },
        {
          "indexed": false,
          "internalType": "uint256",
          "name": "_generation",
          "type": "uint256"
        },
        {
          "indexed": false,
          "internalType": "uint256",
          "name": "_genes",
          "type": "uint256"
        },
        {
          "indexed": false,
          "internalType": "address",
          "name": "_owner",
          "type": "address"
        }
      ],
      "name": "Birth",
      "type": "event"
    },
    {
      "anonymous": false,
      "inputs": [
        {
          "indexed": true,
          "internalType": "address",
          "name": "previousOwner",
          "type": "address"
        },
        {
          "indexed": true,
          "internalType": "address",
          "name": "newOwner",
          "type": "address"
        }
      ],
      "name": "OwnershipTransferred",
      "type": "event"
    },
    {
      "anonymous": false,
      "inputs": [
        {
          "indexed": true,
          "internalType": "address",
          "name": "from",
          "type": "address"
        },
        {
          "indexed": true,
          "internalType": "address",
          "name": "to",
          "type": "address"
        },
        {
          "indexed": true,
          "internalType": "uint256",
          "name": "tokenId",
          "type": "uint256"
        }
      ],
      "name": "Transfer",
      "type": "event"
    },
    {
      "inputs": [],
      "name": "CREATION_LIMIT_GEN0",
      "outputs": [
        {
          "internalType": "uint256",
          "name": "",
          "type": "uint256"
        }
      ],
      "stateMutability": "view",
      "type": "function",
      "constant": true
    },
    {
      "inputs": [
        {
          "internalType": "address",
          "name": "to",
          "type": "address"
        },
        {
          "internalType": "uint256",
          "name": "tokenId",
          "type": "uint256"
        }
      ],
      "name": "approve",
      "outputs": [],
      "stateMutability": "nonpayable",
      "type": "function"
    },
    {
      "inputs": [
        {
          "internalType": "address",
          "name": "owner",
          "type": "address"
        }
      ],
      "name": "balanceOf",
      "outputs": [
        {
          "internalType": "uint256",
          "name": "",
          "type": "uint256"
        }
      ],
      "stateMutability": "view",
      "type": "function",
      "constant": true
    },
    {
      "inputs": [],
      "name": "gen0Counter",
      "outputs": [
        {
          "internalType": "uint256",
          "name": "",
          "type": "uint256"
        }
      ],
      "stateMutability": "view",
      "type": "function",
      "constant": true
    },
    {
      "inputs": [
        {
          "internalType": "uint256",
          "name": "tokenId",
          "type": "uint256"
        }
      ],
      "name": "getApproved",
      "outputs": [
        {
          "internalType": "address",
          "name": "",
          "type": "address"
        }
      ],
      "stateMutability": "view",
      "type": "function",
      "constant": true
    },
    {
      "inputs": [
        {
          "internalType": "address",
          "name": "owner",
          "type": "address"
        },
        {
          "internalType": "address",
          "name": "operator",
          "type": "address"
        }
      ],
      "name": "isApprovedForAll",
      "outputs": [
        {
          "internalType": "bool",
          "name": "",
          "type": "bool"
        }
      ],
      "stateMutability": "view",
      "type": "function",
      "constant": true
    },
    {
      "inputs": [],
      "name": "name",
      "outputs": [
        {
          "internalType": "string",
          "name": "",
          "type": "string"
        }
      ],
      "stateMutability": "view",
      "type": "function",
      "constant": true
    },
    {
      "inputs": [],
      "name": "owner",
      "outputs": [
        {
          "internalType": "address",
          "name": "",
          "type": "address"
        }
      ],
      "stateMutability": "view",
      "type": "function",
      "constant": true
    },
    {
      "inputs": [
        {
          "internalType": "uint256",
          "name": "tokenId",
          "type": "uint256"
        }
      ],
      "name": "ownerOf",
      "outputs": [
        {
          "internalType": "address",
          "name": "",
          "type": "address"
        }
      ],
      "stateMutability": "view",
      "type": "function",
      "constant": true
    },
    {
      "inputs": [],
      "name": "renounceOwnership",
      "outputs": [],
      "stateMutability": "nonpayable",
      "type": "function"
    },
    {
      "inputs": [
        {
          "internalType": "address",
          "name": "from",
          "type": "address"
        },
        {
          "internalType": "address",
          "name": "to",
          "type": "address"
        },
        {
          "internalType": "uint256",
          "name": "tokenId",
          "type": "uint256"
        }
      ],
      "name": "safeTransferFrom",
      "outputs": [],
      "stateMutability": "nonpayable",
      "type": "function"
    },
    {
      "inputs": [
        {
          "internalType": "address",
          "name": "from",
          "type": "address"
        },
        {
          "internalType": "address",
          "name": "to",
          "type": "address"
        },
        {
          "internalType": "uint256",
          "name": "tokenId",
          "type": "uint256"
        },
        {
          "internalType": "bytes",
          "name": "_data",
          "type": "bytes"
        }
      ],
      "name": "safeTransferFrom",
      "outputs": [],
      "stateMutability": "nonpayable",
      "type": "function"
    },
    {
      "inputs": [
        {
          "internalType": "address",
          "name": "operator",
          "type": "address"
        },
        {
          "internalType": "bool",
          "name": "approved",
          "type": "bool"
        }
      ],
      "name": "setApprovalForAll",
      "outputs": [],
      "stateMutability": "nonpayable",
      "type": "function"
    },
    {
      "inputs": [
        {
          "internalType": "bytes4",
          "name": "interfaceId",
          "type": "bytes4"
        }
      ],
      "name": "supportsInterface",
      "outputs": [
        {
          "internalType": "bool",
          "name": "",
          "type": "bool"
        }
      ],
      "stateMutability": "view",
      "type": "function",
      "constant": true
    },
    {
      "inputs": [],
      "name": "symbol",
      "outputs": [
        {
          "internalType": "string",
          "name": "",
          "type": "string"
        }
      ],
      "stateMutability": "view",
      "type": "function",
      "constant": true
    },
    {
      "inputs": [
        {
          "internalType": "uint256",
          "name": "tokenId",
          "type": "uint256"
        }
      ],
      "name": "tokenURI",
      "outputs": [
        {
          "internalType": "string",
          "name": "",
          "type": "string"
        }
      ],
      "stateMutability": "view",
      "type": "function",
      "constant": true
    },
    {
      "inputs": [
        {
          "internalType": "address",
          "name": "from",
          "type": "address"
        },
        {
          "internalType": "address",
          "name": "to",
          "type": "address"
        },
        {
          "internalType": "uint256",
          "name": "tokenId",
          "type": "uint256"
        }
      ],
      "name": "transferFrom",
      "outputs": [],
      "stateMutability": "nonpayable",
      "type": "function"
    },
    {
      "inputs": [
        {
          "internalType": "address",
          "name": "newOwner",
          "type": "address"
        }
      ],
      "name": "transferOwnership",
      "outputs": [],
      "stateMutability": "nonpayable",
      "type": "function"
    },
    {
      "inputs": [
        {
          "internalType": "address",
          "name": "user",
          "type": "address"
        }
      ],
      "name": "alreadyGotFreeKitty",
      "outputs": [
        {
          "internalType": "bool",
          "name": "",
          "type": "bool"
        }
      ],
      "stateMutability": "view",
      "type": "function",
      "constant": true
    },
    {
      "inputs": [],
      "name": "totalSupply",
      "outputs": [
        {
          "internalType": "uint256",
          "name": "",
          "type": "uint256"
        }
      ],
      "stateMutability": "view",
      "type": "function",
      "constant": true
    },
    {
      "inputs": [
        {
          "internalType": "uint256",
          "name": "id",
          "type": "uint256"
        }
      ],
      "name": "getKitty",
      "outputs": [
        {
          "components": [
            {
              "internalType": "uint256",
              "name": "genes",
              "type": "uint256"
            },
            {
              "internalType": "uint64",
              "name": "birthTime",
              "type": "uint64"
            },
            {
              "internalType": "uint32",
              "name": "mumId",
              "type": "uint32"
            },
            {
              "internalType": "uint32",
              "name": "dadId",
              "type": "uint32"
            },
            {
              "internalType": "uint16",
              "name": "generation",
              "type": "uint16"
            }
          ],
          "internalType": "struct Kittycontract.Kitty",
          "name": "",
          "type": "tuple"
        }
      ],
      "stateMutability": "view",
      "type": "function",
      "constant": true
    },
    {
      "inputs": [
        {
          "internalType": "address",
          "name": "_owner",
          "type": "address"
        }
      ],
      "name": "getKittyByOwner",
      "outputs": [
        {
          "internalType": "uint256[]",
          "name": "",
          "type": "uint256[]"
        }
      ],
      "stateMutability": "view",
      "type": "function",
      "constant": true
    },
    {
      "inputs": [
        {
          "internalType": "uint256",
          "name": "_genes",
          "type": "uint256"
        }
      ],
      "name": "createKittyGen0",
      "outputs": [],
      "stateMutability": "nonpayable",
      "type": "function"
    },
    {
      "inputs": [
        {
          "internalType": "uint256",
          "name": "_dadId",
          "type": "uint256"
        },
        {
          "internalType": "uint256",
          "name": "_mumId",
          "type": "uint256"
        }
      ],
      "name": "breed",
      "outputs": [
        {
          "internalType": "uint256",
          "name": "",
          "type": "uint256"
        }
      ],
      "stateMutability": "nonpayable",
      "type": "function"
    }
  ],
  "bytecode": "0x60806040523480156200001157600080fd5b506040518060400160405280601281526020017f43727970746f4b697474696573436c6f6e6500000000000000000000000000008152506040518060400160405280600381526020017f434b43000000000000000000000000000000000000000000000000000000000081525081600090805190602001906200009692919062000826565b508060019080519060200190620000af92919062000826565b505050620000d2620000c6620000f060201b60201c565b620000f860201b60201c565b620000e960008060008033620001be60201b60201c565b5062000dd8565b600033905090565b6000600660009054906101000a900473ffffffffffffffffffffffffffffffffffffffff16905081600660006101000a81548173ffffffffffffffffffffffffffffffffffffffff021916908373ffffffffffffffffffffffffffffffffffffffff1602179055508173ffffffffffffffffffffffffffffffffffffffff168173ffffffffffffffffffffffffffffffffffffffff167f8be0079c531659141344cd1fd0a4f28419497f9722a3daafe3b4186f6b6457e060405160405180910390a35050565b6000806040518060a001604052808581526020014267ffffffffffffffff1681526020018863ffffffff1681526020018763ffffffff1681526020018661ffff16815250905060078190806001815401808255809150506001900390600052602060002090600202016000909190919091506000820151816000015560208201518160010160006101000a81548167ffffffffffffffff021916908367ffffffffffffffff16021790555060408201518160010160086101000a81548163ffffffff021916908363ffffffff160217905550606082015181600101600c6101000a81548163ffffffff021916908363ffffffff16021790555060808201518160010160106101000a81548161ffff021916908361ffff160217905550505060006001600780549050620002f291906200090f565b90506200030684826200035560201b60201c565b7f7199e1688f07d120d7ec20b11115d87d4ce6352a479110dee4b94ec16f0288a688888888886040516200033f959493929190620009a0565b60405180910390a1809250505095945050505050565b620003778282604051806020016040528060008152506200037b60201b60201c565b5050565b6200038d8383620003e960201b60201c565b620003a26000848484620005e360201b60201c565b620003e4576040517f08c379a0000000000000000000000000000000000000000000000000000000008152600401620003db9062000a84565b60405180910390fd5b505050565b600073ffffffffffffffffffffffffffffffffffffffff168273ffffffffffffffffffffffffffffffffffffffff1614156200045c576040517f08c379a0000000000000000000000000000000000000000000000000000000008152600401620004539062000af6565b60405180910390fd5b6200046d816200078d60201b60201c565b15620004b0576040517f08c379a0000000000000000000000000000000000000000000000000000000008152600401620004a79062000b68565b60405180910390fd5b620004c460008383620007f960201b60201c565b6001600360008473ffffffffffffffffffffffffffffffffffffffff1673ffffffffffffffffffffffffffffffffffffffff168152602001908152602001600020600082825462000516919062000b8a565b92505081905550816002600083815260200190815260200160002060006101000a81548173ffffffffffffffffffffffffffffffffffffffff021916908373ffffffffffffffffffffffffffffffffffffffff160217905550808273ffffffffffffffffffffffffffffffffffffffff16600073ffffffffffffffffffffffffffffffffffffffff167fddf252ad1be2c89b69c2b068fc378daa952ba7f163c4a11628f55a4df523b3ef60405160405180910390a4620005df60008383620007fe60201b60201c565b5050565b6000620006118473ffffffffffffffffffffffffffffffffffffffff166200080360201b6200129f1760201c565b1562000780578373ffffffffffffffffffffffffffffffffffffffff1663150b7a0262000643620000f060201b60201c565b8786866040518563ffffffff1660e01b815260040162000667949392919062000c8b565b6020604051808303816000875af1925050508015620006a657506040513d601f19601f82011682018060405250810190620006a3919062000d41565b60015b6200072f573d8060008114620006d9576040519150601f19603f3d011682016040523d82523d6000602084013e620006de565b606091505b5060008151141562000727576040517f08c379a00000000000000000000000000000000000000000000000000000000081526004016200071e9062000a84565b60405180910390fd5b805181602001fd5b63150b7a0260e01b7bffffffffffffffffffffffffffffffffffffffffffffffffffffffff1916817bffffffffffffffffffffffffffffffffffffffffffffffffffffffff19161491505062000785565b600190505b949350505050565b60008073ffffffffffffffffffffffffffffffffffffffff166002600084815260200190815260200160002060009054906101000a900473ffffffffffffffffffffffffffffffffffffffff1673ffffffffffffffffffffffffffffffffffffffff1614159050919050565b505050565b505050565b6000808273ffffffffffffffffffffffffffffffffffffffff163b119050919050565b828054620008349062000da2565b90600052602060002090601f016020900481019282620008585760008555620008a4565b82601f106200087357805160ff1916838001178555620008a4565b82800160010185558215620008a4579182015b82811115620008a357825182559160200191906001019062000886565b5b509050620008b39190620008b7565b5090565b5b80821115620008d2576000816000905550600101620008b8565b5090565b6000819050919050565b7f4e487b7100000000000000000000000000000000000000000000000000000000600052601160045260246000fd5b60006200091c82620008d6565b91506200092983620008d6565b9250828210156200093f576200093e620008e0565b5b828203905092915050565b6200095581620008d6565b82525050565b600073ffffffffffffffffffffffffffffffffffffffff82169050919050565b600062000988826200095b565b9050919050565b6200099a816200097b565b82525050565b600060a082019050620009b760008301886200094a565b620009c660208301876200094a565b620009d560408301866200094a565b620009e460608301856200094a565b620009f360808301846200098f565b9695505050505050565b600082825260208201905092915050565b7f4552433732313a207472616e7366657220746f206e6f6e20455243373231526560008201527f63656976657220696d706c656d656e7465720000000000000000000000000000602082015250565b600062000a6c603283620009fd565b915062000a798262000a0e565b604082019050919050565b6000602082019050818103600083015262000a9f8162000a5d565b9050919050565b7f4552433732313a206d696e7420746f20746865207a65726f2061646472657373600082015250565b600062000ade602083620009fd565b915062000aeb8262000aa6565b602082019050919050565b6000602082019050818103600083015262000b118162000acf565b9050919050565b7f4552433732313a20746f6b656e20616c7265616479206d696e74656400000000600082015250565b600062000b50601c83620009fd565b915062000b5d8262000b18565b602082019050919050565b6000602082019050818103600083015262000b838162000b41565b9050919050565b600062000b9782620008d6565b915062000ba483620008d6565b9250827fffffffffffffffffffffffffffffffffffffffffffffffffffffffffffffffff0382111562000bdc5762000bdb620008e0565b5b828201905092915050565b600081519050919050565b600082825260208201905092915050565b60005b8381101562000c2357808201518184015260208101905062000c06565b8381111562000c33576000848401525b50505050565b6000601f19601f8301169050919050565b600062000c578262000be7565b62000c63818562000bf2565b935062000c7581856020860162000c03565b62000c808162000c39565b840191505092915050565b600060808201905062000ca260008301876200098f565b62000cb160208301866200098f565b62000cc060408301856200094a565b818103606083015262000cd4818462000c4a565b905095945050505050565b600080fd5b60007fffffffff0000000000000000000000000000000000000000000000000000000082169050919050565b62000d1b8162000ce4565b811462000d2757600080fd5b50565b60008151905062000d3b8162000d10565b92915050565b60006020828403121562000d5a5762000d5962000cdf565b5b600062000d6a8482850162000d2a565b91505092915050565b7f4e487b7100000000000000000000000000000000000000000000000000000000600052602260045260246000fd5b6000600282049050600182168062000dbb57607f821691505b6020821081141562000dd25762000dd162000d73565b5b50919050565b61384a8062000de86000396000f3fe608060405234801561001057600080fd5b50600436106101585760003560e01c806395e6c62f116100c3578063d5a776ca1161007c578063d5a776ca146103d9578063d9ecad7b146103f5578063e985e9c514610425578063e98b7f4d14610455578063ef5e94aa14610485578063f2fde38b146104a357610158565b806395e6c62f146102f3578063a22cb46514610323578063a56eb0cc1461033f578063b48343301461036f578063b88d4fde1461038d578063c87b56dd146103a957610158565b806342842e0e1161011557806342842e0e146102315780636352211e1461024d57806370a082311461027d578063715018a6146102ad5780638da5cb5b146102b757806395d89b41146102d557610158565b806301ffc9a71461015d57806306fdde031461018d578063081812fc146101ab578063095ea7b3146101db57806318160ddd146101f757806323b872dd14610215575b600080fd5b6101776004803603810190610172919061226a565b6104bf565b60405161018491906122b2565b60405180910390f35b6101956105a1565b6040516101a29190612366565b60405180910390f35b6101c560048036038101906101c091906123be565b610633565b6040516101d2919061242c565b60405180910390f35b6101f560048036038101906101f09190612473565b6106b8565b005b6101ff6107d0565b60405161020c91906124c2565b60405180910390f35b61022f600480360381019061022a91906124dd565b6107dd565b005b61024b600480360381019061024691906124dd565b61083d565b005b610267600480360381019061026291906123be565b61085d565b604051610274919061242c565b60405180910390f35b61029760048036038101906102929190612530565b61090f565b6040516102a491906124c2565b60405180910390f35b6102b56109c7565b005b6102bf610a4f565b6040516102cc919061242c565b60405180910390f35b6102dd610a79565b6040516102ea9190612366565b60405180910390f35b61030d60048036038101906103089190612530565b610b0b565b60405161031a919061261b565b60405180910390f35b61033d60048036038101906103389190612669565b610bfc565b005b61035960048036038101906103549190612530565b610c12565b60405161036691906122b2565b60405180910390f35b610377610c80565b60405161038491906124c2565b60405180910390f35b6103a760048036038101906103a291906127de565b610c85565b005b6103c360048036038101906103be91906123be565b610ce7565b6040516103d09190612366565b60405180910390f35b6103f360048036038101906103ee91906123be565b610d8e565b005b61040f600480360381019061040a9190612861565b610ef6565b60405161041c91906124c2565b60405180910390f35b61043f600480360381019061043a91906128a1565b611029565b60405161044c91906122b2565b60405180910390f35b61046f600480360381019061046a91906123be565b6110bd565b60405161047c91906129a8565b60405180910390f35b61048d6111a1565b60405161049a91906124c2565b60405180910390f35b6104bd60048036038101906104b89190612530565b6111a7565b005b60007f80ac58cd000000000000000000000000000000000000000000000000000000007bffffffffffffffffffffffffffffffffffffffffffffffffffffffff1916827bffffffffffffffffffffffffffffffffffffffffffffffffffffffff1916148061058a57507f5b5e139f000000000000000000000000000000000000000000000000000000007bffffffffffffffffffffffffffffffffffffffffffffffffffffffff1916827bffffffffffffffffffffffffffffffffffffffffffffffffffffffff1916145b8061059a5750610599826112c2565b5b9050919050565b6060600080546105b0906129f2565b80601f01602080910402602001604051908101604052809291908181526020018280546105dc906129f2565b80156106295780601f106105fe57610100808354040283529160200191610629565b820191906000526020600020905b81548152906001019060200180831161060c57829003601f168201915b5050505050905090565b600061063e8261132c565b61067d576040517f08c379a000000000000000000000000000000000000000000000000000000000815260040161067490612a96565b60405180910390fd5b6004600083815260200190815260200160002060009054906101000a900473ffffffffffffffffffffffffffffffffffffffff169050919050565b60006106c38261085d565b90508073ffffffffffffffffffffffffffffffffffffffff168373ffffffffffffffffffffffffffffffffffffffff161415610734576040517f08c379a000000000000000000000000000000000000000000000000000000000815260040161072b90612b28565b60405180910390fd5b8073ffffffffffffffffffffffffffffffffffffffff16610753611398565b73ffffffffffffffffffffffffffffffffffffffff16148061078257506107818161077c611398565b611029565b5b6107c1576040517f08c379a00000000000000000000000000000000000000000000000000000000081526004016107b890612bba565b60405180910390fd5b6107cb83836113a0565b505050565b6000600780549050905090565b6107ee6107e8611398565b82611459565b61082d576040517f08c379a000000000000000000000000000000000000000000000000000000000815260040161082490612c4c565b60405180910390fd5b610838838383611537565b505050565b61085883838360405180602001604052806000815250610c85565b505050565b6000806002600084815260200190815260200160002060009054906101000a900473ffffffffffffffffffffffffffffffffffffffff169050600073ffffffffffffffffffffffffffffffffffffffff168173ffffffffffffffffffffffffffffffffffffffff161415610906576040517f08c379a00000000000000000000000000000000000000000000000000000000081526004016108fd90612cde565b60405180910390fd5b80915050919050565b60008073ffffffffffffffffffffffffffffffffffffffff168273ffffffffffffffffffffffffffffffffffffffff161415610980576040517f08c379a000000000000000000000000000000000000000000000000000000000815260040161097790612d70565b60405180910390fd5b600360008373ffffffffffffffffffffffffffffffffffffffff1673ffffffffffffffffffffffffffffffffffffffff168152602001908152602001600020549050919050565b6109cf611398565b73ffffffffffffffffffffffffffffffffffffffff166109ed610a4f565b73ffffffffffffffffffffffffffffffffffffffff1614610a43576040517f08c379a0000000000000000000000000000000000000000000000000000000008152600401610a3a90612ddc565b60405180910390fd5b610a4d600061179e565b565b6000600660009054906101000a900473ffffffffffffffffffffffffffffffffffffffff16905090565b606060018054610a88906129f2565b80601f0160208091040260200160405190810160405280929190818152602001828054610ab4906129f2565b8015610b015780601f10610ad657610100808354040283529160200191610b01565b820191906000526020600020905b815481529060010190602001808311610ae457829003601f168201915b5050505050905090565b60606000610b188361090f565b67ffffffffffffffff811115610b3157610b306126b3565b5b604051908082528060200260200182016040528015610b5f5781602001602082028036833780820191505090505b5090506000805b600780549050811015610bf1578473ffffffffffffffffffffffffffffffffffffffff16610b938261085d565b73ffffffffffffffffffffffffffffffffffffffff161415610bde5780838381518110610bc357610bc2612dfc565b5b6020026020010181815250508180610bda90612e5a565b9250505b8080610be990612e5a565b915050610b66565b508192505050919050565b610c0e610c07611398565b8383611864565b5050565b600060011515600860008473ffffffffffffffffffffffffffffffffffffffff1673ffffffffffffffffffffffffffffffffffffffff16815260200190815260200160002060009054906101000a900460ff1615151415610c765760019050610c7b565b600090505b919050565b601481565b610c96610c90611398565b83611459565b610cd5576040517f08c379a0000000000000000000000000000000000000000000000000000000008152600401610ccc90612c4c565b60405180910390fd5b610ce1848484846119d1565b50505050565b6060610cf28261132c565b610d31576040517f08c379a0000000000000000000000000000000000000000000000000000000008152600401610d2890612f15565b60405180910390fd5b6000610d3b611a2d565b90506000815111610d5b5760405180602001604052806000815250610d86565b80610d6584611a44565b604051602001610d76929190612f71565b6040516020818303038152906040525b915050919050565b610d96610a4f565b73ffffffffffffffffffffffffffffffffffffffff163373ffffffffffffffffffffffffffffffffffffffff161415610e3b57601460095410610e0e576040517f08c379a0000000000000000000000000000000000000000000000000000000008152600401610e0590613007565b60405180910390fd5b60096000815480929190610e2190612e5a565b9190505550610e3560008060008433611ba5565b50610ef3565b60001515610e4833610c12565b151514610e8a576040517f08c379a0000000000000000000000000000000000000000000000000000000008152600401610e8190613099565b60405180910390fd5b6001600860003373ffffffffffffffffffffffffffffffffffffffff1673ffffffffffffffffffffffffffffffffffffffff16815260200190815260200160002060006101000a81548160ff021916908315150217905550610ef160008060008433611ba5565b505b50565b6000610f00611398565b73ffffffffffffffffffffffffffffffffffffffff16610f1f8461085d565b73ffffffffffffffffffffffffffffffffffffffff16148015610f7c5750610f45611398565b73ffffffffffffffffffffffffffffffffffffffff16610f648361085d565b73ffffffffffffffffffffffffffffffffffffffff16145b610fbb576040517f08c379a0000000000000000000000000000000000000000000000000000000008152600401610fb29061312b565b60405180910390fd5b6000610fc6846110bd565b90506000610fd3846110bd565b90506000610fe983600001518360000151611d30565b90506000611007846080015161ffff16846080015161ffff16611d84565b905061101d86888385611018611398565b611ba5565b94505050505092915050565b6000600560008473ffffffffffffffffffffffffffffffffffffffff1673ffffffffffffffffffffffffffffffffffffffff16815260200190815260200160002060008373ffffffffffffffffffffffffffffffffffffffff1673ffffffffffffffffffffffffffffffffffffffff16815260200190815260200160002060009054906101000a900460ff16905092915050565b6110c56121b5565b600782815481106110d9576110d8612dfc565b5b90600052602060002090600202016040518060a0016040529081600082015481526020016001820160009054906101000a900467ffffffffffffffff1667ffffffffffffffff1667ffffffffffffffff1681526020016001820160089054906101000a900463ffffffff1663ffffffff1663ffffffff16815260200160018201600c9054906101000a900463ffffffff1663ffffffff1663ffffffff1681526020016001820160109054906101000a900461ffff1661ffff1661ffff16815250509050919050565b60095481565b6111af611398565b73ffffffffffffffffffffffffffffffffffffffff166111cd610a4f565b73ffffffffffffffffffffffffffffffffffffffff1614611223576040517f08c379a000000000000000000000000000000000000000000000000000000000815260040161121a90612ddc565b60405180910390fd5b600073ffffffffffffffffffffffffffffffffffffffff168173ffffffffffffffffffffffffffffffffffffffff161415611293576040517f08c379a000000000000000000000000000000000000000000000000000000000815260040161128a906131bd565b60405180910390fd5b61129c8161179e565b50565b6000808273ffffffffffffffffffffffffffffffffffffffff163b119050919050565b60007f01ffc9a7000000000000000000000000000000000000000000000000000000007bffffffffffffffffffffffffffffffffffffffffffffffffffffffff1916827bffffffffffffffffffffffffffffffffffffffffffffffffffffffff1916149050919050565b60008073ffffffffffffffffffffffffffffffffffffffff166002600084815260200190815260200160002060009054906101000a900473ffffffffffffffffffffffffffffffffffffffff1673ffffffffffffffffffffffffffffffffffffffff1614159050919050565b600033905090565b816004600083815260200190815260200160002060006101000a81548173ffffffffffffffffffffffffffffffffffffffff021916908373ffffffffffffffffffffffffffffffffffffffff160217905550808273ffffffffffffffffffffffffffffffffffffffff166114138361085d565b73ffffffffffffffffffffffffffffffffffffffff167f8c5be1e5ebec7d5bd14f71427d1e84f3dd0314c0f7b2291e5b200ac8c7c3b92560405160405180910390a45050565b60006114648261132c565b6114a3576040517f08c379a000000000000000000000000000000000000000000000000000000000815260040161149a9061324f565b60405180910390fd5b60006114ae8361085d565b90508073ffffffffffffffffffffffffffffffffffffffff168473ffffffffffffffffffffffffffffffffffffffff1614806114f057506114ef8185611029565b5b8061152e57508373ffffffffffffffffffffffffffffffffffffffff1661151684610633565b73ffffffffffffffffffffffffffffffffffffffff16145b91505092915050565b8273ffffffffffffffffffffffffffffffffffffffff166115578261085d565b73ffffffffffffffffffffffffffffffffffffffff16146115ad576040517f08c379a00000000000000000000000000000000000000000000000000000000081526004016115a4906132e1565b60405180910390fd5b600073ffffffffffffffffffffffffffffffffffffffff168273ffffffffffffffffffffffffffffffffffffffff16141561161d576040517f08c379a000000000000000000000000000000000000000000000000000000000815260040161161490613373565b60405180910390fd5b611628838383611dd0565b6116336000826113a0565b6001600360008573ffffffffffffffffffffffffffffffffffffffff1673ffffffffffffffffffffffffffffffffffffffff16815260200190815260200160002060008282546116839190613393565b925050819055506001600360008473ffffffffffffffffffffffffffffffffffffffff1673ffffffffffffffffffffffffffffffffffffffff16815260200190815260200160002060008282546116da91906133c7565b92505081905550816002600083815260200190815260200160002060006101000a81548173ffffffffffffffffffffffffffffffffffffffff021916908373ffffffffffffffffffffffffffffffffffffffff160217905550808273ffffffffffffffffffffffffffffffffffffffff168473ffffffffffffffffffffffffffffffffffffffff167fddf252ad1be2c89b69c2b068fc378daa952ba7f163c4a11628f55a4df523b3ef60405160405180910390a4611799838383611dd5565b505050565b6000600660009054906101000a900473ffffffffffffffffffffffffffffffffffffffff16905081600660006101000a81548173ffffffffffffffffffffffffffffffffffffffff021916908373ffffffffffffffffffffffffffffffffffffffff1602179055508173ffffffffffffffffffffffffffffffffffffffff168173ffffffffffffffffffffffffffffffffffffffff167f8be0079c531659141344cd1fd0a4f28419497f9722a3daafe3b4186f6b6457e060405160405180910390a35050565b8173ffffffffffffffffffffffffffffffffffffffff168373ffffffffffffffffffffffffffffffffffffffff1614156118d3576040517f08c379a00000000000000000000000000000000000000000000000000000000081526004016118ca90613469565b60405180910390fd5b80600560008573ffffffffffffffffffffffffffffffffffffffff1673ffffffffffffffffffffffffffffffffffffffff16815260200190815260200160002060008473ffffffffffffffffffffffffffffffffffffffff1673ffffffffffffffffffffffffffffffffffffffff16815260200190815260200160002060006101000a81548160ff0219169083151502179055508173ffffffffffffffffffffffffffffffffffffffff168373ffffffffffffffffffffffffffffffffffffffff167f17307eab39ab6107e8899845ad3d59bd9653f200f220920489ca2b5937696c31836040516119c491906122b2565b60405180910390a3505050565b6119dc848484611537565b6119e884848484611dda565b611a27576040517f08c379a0000000000000000000000000000000000000000000000000000000008152600401611a1e906134fb565b60405180910390fd5b50505050565b606060405180602001604052806000815250905090565b60606000821415611a8c576040518060400160405280600181526020017f30000000000000000000000000000000000000000000000000000000000000008152509050611ba0565b600082905060005b60008214611abe578080611aa790612e5a565b915050600a82611ab7919061354a565b9150611a94565b60008167ffffffffffffffff811115611ada57611ad96126b3565b5b6040519080825280601f01601f191660200182016040528015611b0c5781602001600182028036833780820191505090505b5090505b60008514611b9957600182611b259190613393565b9150600a85611b34919061357b565b6030611b4091906133c7565b60f81b818381518110611b5657611b55612dfc565b5b60200101907effffffffffffffffffffffffffffffffffffffffffffffffffffffffffffff1916908160001a905350600a85611b92919061354a565b9450611b10565b8093505050505b919050565b6000806040518060a001604052808581526020014267ffffffffffffffff1681526020018863ffffffff1681526020018763ffffffff1681526020018661ffff16815250905060078190806001815401808255809150506001900390600052602060002090600202016000909190919091506000820151816000015560208201518160010160006101000a81548167ffffffffffffffff021916908367ffffffffffffffff16021790555060408201518160010160086101000a81548163ffffffff021916908363ffffffff160217905550606082015181600101600c6101000a81548163ffffffff021916908363ffffffff16021790555060808201518160010160106101000a81548161ffff021916908361ffff160217905550505060006001600780549050611cd79190613393565b9050611ce38482611f62565b7f7199e1688f07d120d7ec20b11115d87d4ce6352a479110dee4b94ec16f0288a68888888888604051611d1a9594939291906135ac565b60405180910390a1809250505095945050505050565b6000806305f5e10084611d43919061354a565b905060006305f5e10084611d57919061357b565b90506000816305f5e10084611d6c91906135ff565b611d7691906133c7565b905080935050505092915050565b6000600182611d9391906133c7565b600184611da091906133c7565b1115611dba57600183611db391906133c7565b9050611dca565b600182611dc791906133c7565b90505b92915050565b505050565b505050565b6000611dfb8473ffffffffffffffffffffffffffffffffffffffff1661129f565b15611f55578373ffffffffffffffffffffffffffffffffffffffff1663150b7a02611e24611398565b8786866040518563ffffffff1660e01b8152600401611e4694939291906136ae565b6020604051808303816000875af1925050508015611e8257506040513d601f19601f82011682018060405250810190611e7f919061370f565b60015b611f05573d8060008114611eb2576040519150601f19603f3d011682016040523d82523d6000602084013e611eb7565b606091505b50600081511415611efd576040517f08c379a0000000000000000000000000000000000000000000000000000000008152600401611ef4906134fb565b60405180910390fd5b805181602001fd5b63150b7a0260e01b7bffffffffffffffffffffffffffffffffffffffffffffffffffffffff1916817bffffffffffffffffffffffffffffffffffffffffffffffffffffffff191614915050611f5a565b600190505b949350505050565b611f7c828260405180602001604052806000815250611f80565b5050565b611f8a8383611fdb565b611f976000848484611dda565b611fd6576040517f08c379a0000000000000000000000000000000000000000000000000000000008152600401611fcd906134fb565b60405180910390fd5b505050565b600073ffffffffffffffffffffffffffffffffffffffff168273ffffffffffffffffffffffffffffffffffffffff16141561204b576040517f08c379a000000000000000000000000000000000000000000000000000000000815260040161204290613788565b60405180910390fd5b6120548161132c565b15612094576040517f08c379a000000000000000000000000000000000000000000000000000000000815260040161208b906137f4565b60405180910390fd5b6120a060008383611dd0565b6001600360008473ffffffffffffffffffffffffffffffffffffffff1673ffffffffffffffffffffffffffffffffffffffff16815260200190815260200160002060008282546120f091906133c7565b92505081905550816002600083815260200190815260200160002060006101000a81548173ffffffffffffffffffffffffffffffffffffffff021916908373ffffffffffffffffffffffffffffffffffffffff160217905550808273ffffffffffffffffffffffffffffffffffffffff16600073ffffffffffffffffffffffffffffffffffffffff167fddf252ad1be2c89b69c2b068fc378daa952ba7f163c4a11628f55a4df523b3ef60405160405180910390a46121b160008383611dd5565b5050565b6040518060a0016040528060008152602001600067ffffffffffffffff168152602001600063ffffffff168152602001600063ffffffff168152602001600061ffff1681525090565b6000604051905090565b600080fd5b600080fd5b60007fffffffff0000000000000000000000000000000000000000000000000000000082169050919050565b61224781612212565b811461225257600080fd5b50565b6000813590506122648161223e565b92915050565b6000602082840312156122805761227f612208565b5b600061228e84828501612255565b91505092915050565b60008115159050919050565b6122ac81612297565b82525050565b60006020820190506122c760008301846122a3565b92915050565b600081519050919050565b600082825260208201905092915050565b60005b838110156123075780820151818401526020810190506122ec565b83811115612316576000848401525b50505050565b6000601f19601f8301169050919050565b6000612338826122cd565b61234281856122d8565b93506123528185602086016122e9565b61235b8161231c565b840191505092915050565b60006020820190508181036000830152612380818461232d565b905092915050565b6000819050919050565b61239b81612388565b81146123a657600080fd5b50565b6000813590506123b881612392565b92915050565b6000602082840312156123d4576123d3612208565b5b60006123e2848285016123a9565b91505092915050565b600073ffffffffffffffffffffffffffffffffffffffff82169050919050565b6000612416826123eb565b9050919050565b6124268161240b565b82525050565b6000602082019050612441600083018461241d565b92915050565b6124508161240b565b811461245b57600080fd5b50565b60008135905061246d81612447565b92915050565b6000806040838503121561248a57612489612208565b5b60006124988582860161245e565b92505060206124a9858286016123a9565b9150509250929050565b6124bc81612388565b82525050565b60006020820190506124d760008301846124b3565b92915050565b6000806000606084860312156124f6576124f5612208565b5b60006125048682870161245e565b93505060206125158682870161245e565b9250506040612526868287016123a9565b9150509250925092565b60006020828403121561254657612545612208565b5b60006125548482850161245e565b91505092915050565b600081519050919050565b600082825260208201905092915050565b6000819050602082019050919050565b61259281612388565b82525050565b60006125a48383612589565b60208301905092915050565b6000602082019050919050565b60006125c88261255d565b6125d28185612568565b93506125dd83612579565b8060005b8381101561260e5781516125f58882612598565b9750612600836125b0565b9250506001810190506125e1565b5085935050505092915050565b6000602082019050818103600083015261263581846125bd565b905092915050565b61264681612297565b811461265157600080fd5b50565b6000813590506126638161263d565b92915050565b600080604083850312156126805761267f612208565b5b600061268e8582860161245e565b925050602061269f85828601612654565b9150509250929050565b600080fd5b600080fd5b7f4e487b7100000000000000000000000000000000000000000000000000000000600052604160045260246000fd5b6126eb8261231c565b810181811067ffffffffffffffff8211171561270a576127096126b3565b5b80604052505050565b600061271d6121fe565b905061272982826126e2565b919050565b600067ffffffffffffffff821115612749576127486126b3565b5b6127528261231c565b9050602081019050919050565b82818337600083830152505050565b600061278161277c8461272e565b612713565b90508281526020810184848401111561279d5761279c6126ae565b5b6127a884828561275f565b509392505050565b600082601f8301126127c5576127c46126a9565b5b81356127d584826020860161276e565b91505092915050565b600080600080608085870312156127f8576127f7612208565b5b60006128068782880161245e565b94505060206128178782880161245e565b9350506040612828878288016123a9565b925050606085013567ffffffffffffffff8111156128495761284861220d565b5b612855878288016127b0565b91505092959194509250565b6000806040838503121561287857612877612208565b5b6000612886858286016123a9565b9250506020612897858286016123a9565b9150509250929050565b600080604083850312156128b8576128b7612208565b5b60006128c68582860161245e565b92505060206128d78582860161245e565b9150509250929050565b600067ffffffffffffffff82169050919050565b6128fe816128e1565b82525050565b600063ffffffff82169050919050565b61291d81612904565b82525050565b600061ffff82169050919050565b61293a81612923565b82525050565b60a0820160008201516129566000850182612589565b50602082015161296960208501826128f5565b50604082015161297c6040850182612914565b50606082015161298f6060850182612914565b5060808201516129a26080850182612931565b50505050565b600060a0820190506129bd6000830184612940565b92915050565b7f4e487b7100000000000000000000000000000000000000000000000000000000600052602260045260246000fd5b60006002820490506001821680612a0a57607f821691505b60208210811415612a1e57612a1d6129c3565b5b50919050565b7f4552433732313a20617070726f76656420717565727920666f72206e6f6e657860008201527f697374656e7420746f6b656e0000000000000000000000000000000000000000602082015250565b6000612a80602c836122d8565b9150612a8b82612a24565b604082019050919050565b60006020820190508181036000830152612aaf81612a73565b9050919050565b7f4552433732313a20617070726f76616c20746f2063757272656e74206f776e6560008201527f7200000000000000000000000000000000000000000000000000000000000000602082015250565b6000612b126021836122d8565b9150612b1d82612ab6565b604082019050919050565b60006020820190508181036000830152612b4181612b05565b9050919050565b7f4552433732313a20617070726f76652063616c6c6572206973206e6f74206f7760008201527f6e6572206e6f7220617070726f76656420666f7220616c6c0000000000000000602082015250565b6000612ba46038836122d8565b9150612baf82612b48565b604082019050919050565b60006020820190508181036000830152612bd381612b97565b9050919050565b7f4552433732313a207472616e736665722063616c6c6572206973206e6f74206f60008201527f776e6572206e6f7220617070726f766564000000000000000000000000000000602082015250565b6000612c366031836122d8565b9150612c4182612bda565b604082019050919050565b60006020820190508181036000830152612c6581612c29565b9050919050565b7f4552433732313a206f776e657220717565727920666f72206e6f6e657869737460008201527f656e7420746f6b656e0000000000000000000000000000000000000000000000602082015250565b6000612cc86029836122d8565b9150612cd382612c6c565b604082019050919050565b60006020820190508181036000830152612cf781612cbb565b9050919050565b7f4552433732313a2062616c616e636520717565727920666f7220746865207a6560008201527f726f206164647265737300000000000000000000000000000000000000000000602082015250565b6000612d5a602a836122d8565b9150612d6582612cfe565b604082019050919050565b60006020820190508181036000830152612d8981612d4d565b9050919050565b7f4f776e61626c653a2063616c6c6572206973206e6f7420746865206f776e6572600082015250565b6000612dc66020836122d8565b9150612dd182612d90565b602082019050919050565b60006020820190508181036000830152612df581612db9565b9050919050565b7f4e487b7100000000000000000000000000000000000000000000000000000000600052603260045260246000fd5b7f4e487b7100000000000000000000000000000000000000000000000000000000600052601160045260246000fd5b6000612e6582612388565b91507fffffffffffffffffffffffffffffffffffffffffffffffffffffffffffffffff821415612e9857612e97612e2b565b5b600182019050919050565b7f4552433732314d657461646174613a2055524920717565727920666f72206e6f60008201527f6e6578697374656e7420746f6b656e0000000000000000000000000000000000602082015250565b6000612eff602f836122d8565b9150612f0a82612ea3565b604082019050919050565b60006020820190508181036000830152612f2e81612ef2565b9050919050565b600081905092915050565b6000612f4b826122cd565b612f558185612f35565b9350612f658185602086016122e9565b80840191505092915050565b6000612f7d8285612f40565b9150612f898284612f40565b91508190509392505050565b7f416d6f756e74206f662066697273742067656e65726174696f6e206b6974746960008201527f6573206973206578636565646564000000000000000000000000000000000000602082015250565b6000612ff1602e836122d8565b9150612ffc82612f95565b604082019050919050565b6000602082019050818103600083015261302081612fe4565b9050919050565b7f596f75206861766520616c72656164792063726561746564207468652066726560008201527f65206b6974747900000000000000000000000000000000000000000000000000602082015250565b60006130836027836122d8565b915061308e82613027565b604082019050919050565b600060208201905081810360008301526130b281613076565b9050919050565b7f596f7520617265206e6f7420746865206f776e6572206f66207468656573206b60008201527f6974746965730000000000000000000000000000000000000000000000000000602082015250565b60006131156026836122d8565b9150613120826130b9565b604082019050919050565b6000602082019050818103600083015261314481613108565b9050919050565b7f4f776e61626c653a206e6577206f776e657220697320746865207a65726f206160008201527f6464726573730000000000000000000000000000000000000000000000000000602082015250565b60006131a76026836122d8565b91506131b28261314b565b604082019050919050565b600060208201905081810360008301526131d68161319a565b9050919050565b7f4552433732313a206f70657261746f7220717565727920666f72206e6f6e657860008201527f697374656e7420746f6b656e0000000000000000000000000000000000000000602082015250565b6000613239602c836122d8565b9150613244826131dd565b604082019050919050565b600060208201905081810360008301526132688161322c565b9050919050565b7f4552433732313a207472616e736665722066726f6d20696e636f72726563742060008201527f6f776e6572000000000000000000000000000000000000000000000000000000602082015250565b60006132cb6025836122d8565b91506132d68261326f565b604082019050919050565b600060208201905081810360008301526132fa816132be565b9050919050565b7f4552433732313a207472616e7366657220746f20746865207a65726f2061646460008201527f7265737300000000000000000000000000000000000000000000000000000000602082015250565b600061335d6024836122d8565b915061336882613301565b604082019050919050565b6000602082019050818103600083015261338c81613350565b9050919050565b600061339e82612388565b91506133a983612388565b9250828210156133bc576133bb612e2b565b5b828203905092915050565b60006133d282612388565b91506133dd83612388565b9250827fffffffffffffffffffffffffffffffffffffffffffffffffffffffffffffffff0382111561341257613411612e2b565b5b828201905092915050565b7f4552433732313a20617070726f766520746f2063616c6c657200000000000000600082015250565b60006134536019836122d8565b915061345e8261341d565b602082019050919050565b6000602082019050818103600083015261348281613446565b9050919050565b7f4552433732313a207472616e7366657220746f206e6f6e20455243373231526560008201527f63656976657220696d706c656d656e7465720000000000000000000000000000602082015250565b60006134e56032836122d8565b91506134f082613489565b604082019050919050565b60006020820190508181036000830152613514816134d8565b9050919050565b7f4e487b7100000000000000000000000000000000000000000000000000000000600052601260045260246000fd5b600061355582612388565b915061356083612388565b9250826135705761356f61351b565b5b828204905092915050565b600061358682612388565b915061359183612388565b9250826135a1576135a061351b565b5b828206905092915050565b600060a0820190506135c160008301886124b3565b6135ce60208301876124b3565b6135db60408301866124b3565b6135e860608301856124b3565b6135f5608083018461241d565b9695505050505050565b600061360a82612388565b915061361583612388565b9250817fffffffffffffffffffffffffffffffffffffffffffffffffffffffffffffffff048311821515161561364e5761364d612e2b565b5b828202905092915050565b600081519050919050565b600082825260208201905092915050565b600061368082613659565b61368a8185613664565b935061369a8185602086016122e9565b6136a38161231c565b840191505092915050565b60006080820190506136c3600083018761241d565b6136d0602083018661241d565b6136dd60408301856124b3565b81810360608301526136ef8184613675565b905095945050505050565b6000815190506137098161223e565b92915050565b60006020828403121561372557613724612208565b5b6000613733848285016136fa565b91505092915050565b7f4552433732313a206d696e7420746f20746865207a65726f2061646472657373600082015250565b60006137726020836122d8565b915061377d8261373c565b602082019050919050565b600060208201905081810360008301526137a181613765565b9050919050565b7f4552433732313a20746f6b656e20616c7265616479206d696e74656400000000600082015250565b60006137de601c836122d8565b91506137e9826137a8565b602082019050919050565b6000602082019050818103600083015261380d816137d1565b905091905056fea26469706673582212200938e7879816873e4b0c931161ba2d5e6800b4b125ee772fdce3eaf9ccfdcfb064736f6c634300080b0033",
  "immutableReferences": {},
  "source": "pragma solidity ^0.8.0;\r\n\r\nimport \"../node_modules/@openzeppelin/contracts/token/ERC721/ERC721.sol\";\r\nimport \"../node_modules/@openzeppelin/contracts/access/Ownable.sol\";\r\n\r\ncontract Kittycontract is ERC721(\"CryptoKittiesClone\", \"CKC\"), Ownable {\r\n  struct Kitty {\r\n    uint256 genes;\r\n    uint64 birthTime;\r\n    uint32 mumId;\r\n    uint32 dadId;\r\n    uint16 generation;\r\n  }\r\n  \r\n  Kitty[] kitties;\r\n  mapping (address => bool) gotFreeKitty;\r\n\r\n  function alreadyGotFreeKitty(address user) view public returns (bool) {\r\n    if (gotFreeKitty[user] == true) {\r\n        return true;\r\n    }    \r\n    return false;    \r\n  } \r\n\r\n  function totalSupply() view public returns (uint) {\r\n    return kitties.length;\r\n  }  \r\n\r\n  function getKitty(uint id) public view returns (Kitty memory) {\r\n    return kitties[id];\r\n  }\r\n\r\n  function getKittyByOwner(address _owner) external view returns(uint[] memory) {\r\n    uint[] memory result = new uint[](balanceOf(_owner));\r\n    uint counter = 0;\r\n    for (uint i = 0; i < kitties.length; i++) {\r\n      if (ownerOf(i) == _owner) {\r\n        result[counter] = i;\r\n        counter++;\r\n      }\r\n    }\r\n    return result;\r\n  }\r\n\r\n  uint public constant CREATION_LIMIT_GEN0 = 20;\r\n  uint public gen0Counter;\r\n  \r\n\r\n  event Birth(\r\n    uint256 _mumId,\r\n    uint256 _dadId,\r\n    uint256 _generation,\r\n    uint256 _genes,\r\n    address _owner\r\n  );\r\n\r\n  // prevents the error with marketplace getAllTokenOnSale()\r\n  constructor () {\r\n    _createKitty(0, 0, 0, 0, msg.sender);\r\n  }\r\n\r\n  function createKittyGen0(uint256 _genes) public {\r\n      if (msg.sender == owner()) {          \r\n          require(gen0Counter < CREATION_LIMIT_GEN0, 'Amount of first generation kitties is exceeded');\r\n          gen0Counter++;\r\n          _createKitty(0, 0, 0, _genes, msg.sender);\r\n      } else {\r\n          require(alreadyGotFreeKitty(msg.sender) == false, \"You have already created the free kitty\");\r\n          gotFreeKitty[msg.sender] = true; \r\n          _createKitty(0, 0, 0, _genes, msg.sender);\r\n      }\r\n  }  \r\n\r\n  function _createKitty(\r\n    uint256 _mumId,\r\n    uint256 _dadId,\r\n    uint256 _generation,\r\n    uint256 _genes,\r\n    address _owner\r\n  ) private returns (uint256) {\r\n    Kitty memory _kitty = Kitty({\r\n      genes: _genes,\r\n      birthTime: uint64(block.timestamp),\r\n      mumId: uint32(_mumId),\r\n      dadId: uint32(_dadId),\r\n      generation: uint16(_generation)\r\n    });\r\n\r\n    kitties.push(_kitty);\r\n    uint256 newKittenId = kitties.length - 1;\r\n\r\n    _safeMint(_owner, newKittenId);\r\n    emit Birth(_mumId, _dadId, _generation, _genes, _owner);\r\n    \r\n    return newKittenId;\r\n  }\r\n\r\n  function breed(uint _dadId, uint _mumId) public returns (uint) {\r\n    //check ownership\r\n    require(ownerOf(_dadId) == _msgSender() && ownerOf(_mumId) == _msgSender(),\r\n     \"You are not the owner of thees kitties\"\r\n     );\r\n    //get parents data\r\n    Kitty memory dad = getKitty(_dadId);\r\n    Kitty memory mum = getKitty(_mumId);\r\n\r\n    uint newDna = _mixDna(dad.genes, mum.genes);\r\n    //figure out the generation\r\n    uint newGen = _newGeneration(dad.generation, mum.generation);\r\n    //create a new cat with the new props, give it to the msg.sender\r\n    return _createKitty(_mumId, _dadId, newGen, newDna, _msgSender());\r\n  }\r\n\r\n  function _mixDna(uint _dadDna, uint _mumDna) pure internal returns (uint) {\r\n    uint firstHalf = _dadDna / 100000000;\r\n    uint secondHalf = _mumDna % 100000000;\r\n    uint mixedDna = firstHalf * 100000000 + secondHalf;\r\n    return mixedDna;     \r\n  }\r\n\r\n  function _newGeneration(uint _dadGen, uint _mumGen) pure internal returns (uint) {\r\n    if (_dadGen + 1 > _mumGen + 1) {\r\n        return _dadGen + 1;\r\n    } \r\n    return _mumGen + 1;    \r\n  }\r\n}\r\n\r\n",
  "sourcePath": "C:\\\\crypto_kitties_clone\\contracts\\Kittycontract.sol",
  "compiler": {
    "name": "solc",
    "version": "0.8.11+commit.d7f03943.Emscripten.clang"
  },
  "schemaVersion": "3.4.5",
  "updatedAt": "2022-05-12T12:15:20.809Z",
  "networkType": "ethereum",
  "devdoc": {
    "kind": "dev",
    "methods": {
      "approve(address,uint256)": {
        "details": "See {IERC721-approve}."
      },
      "balanceOf(address)": {
        "details": "See {IERC721-balanceOf}."
      },
      "getApproved(uint256)": {
        "details": "See {IERC721-getApproved}."
      },
      "isApprovedForAll(address,address)": {
        "details": "See {IERC721-isApprovedForAll}."
      },
      "name()": {
        "details": "See {IERC721Metadata-name}."
      },
      "owner()": {
        "details": "Returns the address of the current owner."
      },
      "ownerOf(uint256)": {
        "details": "See {IERC721-ownerOf}."
      },
      "renounceOwnership()": {
        "details": "Leaves the contract without owner. It will not be possible to call `onlyOwner` functions anymore. Can only be called by the current owner. NOTE: Renouncing ownership will leave the contract without an owner, thereby removing any functionality that is only available to the owner."
      },
      "safeTransferFrom(address,address,uint256)": {
        "details": "See {IERC721-safeTransferFrom}."
      },
      "safeTransferFrom(address,address,uint256,bytes)": {
        "details": "See {IERC721-safeTransferFrom}."
      },
      "setApprovalForAll(address,bool)": {
        "details": "See {IERC721-setApprovalForAll}."
      },
      "supportsInterface(bytes4)": {
        "details": "See {IERC165-supportsInterface}."
      },
      "symbol()": {
        "details": "See {IERC721Metadata-symbol}."
      },
      "tokenURI(uint256)": {
        "details": "See {IERC721Metadata-tokenURI}."
      },
      "transferFrom(address,address,uint256)": {
        "details": "See {IERC721-transferFrom}."
      },
      "transferOwnership(address)": {
        "details": "Transfers ownership of the contract to a new account (`newOwner`). Can only be called by the current owner."
      }
    },
    "version": 1
  },
  "userdoc": {
    "kind": "user",
    "methods": {},
    "version": 1
  }
}