{
  "contractName": "KittyMarketPlace",
  "abi": [
    {
      "inputs": [
        {
          "internalType": "address",
          "name": "_kittyContractAddress",
          "type": "address"
        }
      ],
      "stateMutability": "nonpayable",
      "type": "constructor"
    },
    {
      "anonymous": false,
      "inputs": [
        {
          "indexed": false,
          "internalType": "string",
          "name": "TxType",
          "type": "string"
        },
        {
          "indexed": false,
          "internalType": "address",
          "name": "owner",
          "type": "address"
        },
        {
          "indexed": false,
          "internalType": "uint256",
          "name": "tokenId",
          "type": "uint256"
        }
      ],
      "name": "MarketTransaction",
      "type": "event"
    },
    {
      "anonymous": false,
      "inputs": [
        {
          "indexed": true,
          "internalType": "address",
          "name": "previousOwner",
          "type": "address"
        },
        {
          "indexed": true,
          "internalType": "address",
          "name": "newOwner",
          "type": "address"
        }
      ],
      "name": "OwnershipTransferred",
      "type": "event"
    },
    {
      "inputs": [],
      "name": "owner",
      "outputs": [
        {
          "internalType": "address",
          "name": "",
          "type": "address"
        }
      ],
      "stateMutability": "view",
      "type": "function",
      "constant": true
    },
    {
      "inputs": [],
      "name": "renounceOwnership",
      "outputs": [],
      "stateMutability": "nonpayable",
      "type": "function"
    },
    {
      "inputs": [
        {
          "internalType": "address",
          "name": "newOwner",
          "type": "address"
        }
      ],
      "name": "transferOwnership",
      "outputs": [],
      "stateMutability": "nonpayable",
      "type": "function"
    },
    {
      "inputs": [
        {
          "internalType": "address",
          "name": "_kittyContractAddress",
          "type": "address"
        }
      ],
      "name": "setKittyContract",
      "outputs": [],
      "stateMutability": "nonpayable",
      "type": "function"
    },
    {
      "inputs": [
        {
          "internalType": "uint256",
          "name": "_tokenId",
          "type": "uint256"
        }
      ],
      "name": "getOffer",
      "outputs": [
        {
          "internalType": "address",
          "name": "seller",
          "type": "address"
        },
        {
          "internalType": "uint256",
          "name": "price",
          "type": "uint256"
        },
        {
          "internalType": "uint256",
          "name": "index",
          "type": "uint256"
        },
        {
          "internalType": "uint256",
          "name": "tokenId",
          "type": "uint256"
        },
        {
          "internalType": "bool",
          "name": "active",
          "type": "bool"
        }
      ],
      "stateMutability": "view",
      "type": "function",
      "constant": true
    },
    {
      "inputs": [],
      "name": "getAllTokenOnSale",
      "outputs": [
        {
          "internalType": "uint256[]",
          "name": "listOfOffers",
          "type": "uint256[]"
        }
      ],
      "stateMutability": "view",
      "type": "function",
      "constant": true
    },
    {
      "inputs": [
        {
          "internalType": "uint256",
          "name": "_price",
          "type": "uint256"
        },
        {
          "internalType": "uint256",
          "name": "_tokenId",
          "type": "uint256"
        }
      ],
      "name": "setOffer",
      "outputs": [],
      "stateMutability": "nonpayable",
      "type": "function"
    },
    {
      "inputs": [
        {
          "internalType": "uint256",
          "name": "_tokenId",
          "type": "uint256"
        }
      ],
      "name": "removeOffer",
      "outputs": [],
      "stateMutability": "nonpayable",
      "type": "function"
    },
    {
      "inputs": [
        {
          "internalType": "uint256",
          "name": "_tokenId",
          "type": "uint256"
        }
      ],
      "name": "buyKitty",
      "outputs": [],
      "stateMutability": "payable",
      "type": "function",
      "payable": true
    }
  ],
  "bytecode": "0x60806040523480156200001157600080fd5b5060405162001ef038038062001ef08339818101604052810190620000379190620002a1565b620000576200004b6200006f60201b60201c565b6200007760201b60201c565b62000068816200013b60201b60201c565b5062000356565b600033905090565b60008060009054906101000a900473ffffffffffffffffffffffffffffffffffffffff169050816000806101000a81548173ffffffffffffffffffffffffffffffffffffffff021916908373ffffffffffffffffffffffffffffffffffffffff1602179055508173ffffffffffffffffffffffffffffffffffffffff168173ffffffffffffffffffffffffffffffffffffffff167f8be0079c531659141344cd1fd0a4f28419497f9722a3daafe3b4186f6b6457e060405160405180910390a35050565b6200014b6200006f60201b60201c565b73ffffffffffffffffffffffffffffffffffffffff16620001716200020e60201b60201c565b73ffffffffffffffffffffffffffffffffffffffff1614620001ca576040517f08c379a0000000000000000000000000000000000000000000000000000000008152600401620001c19062000334565b60405180910390fd5b80600160006101000a81548173ffffffffffffffffffffffffffffffffffffffff021916908373ffffffffffffffffffffffffffffffffffffffff16021790555050565b60008060009054906101000a900473ffffffffffffffffffffffffffffffffffffffff16905090565b600080fd5b600073ffffffffffffffffffffffffffffffffffffffff82169050919050565b600062000269826200023c565b9050919050565b6200027b816200025c565b81146200028757600080fd5b50565b6000815190506200029b8162000270565b92915050565b600060208284031215620002ba57620002b962000237565b5b6000620002ca848285016200028a565b91505092915050565b600082825260208201905092915050565b7f4f776e61626c653a2063616c6c6572206973206e6f7420746865206f776e6572600082015250565b60006200031c602083620002d3565b91506200032982620002e4565b602082019050919050565b600060208201905081810360008301526200034f816200030d565b9050919050565b611b8a80620003666000396000f3fe6080604052600436106100865760003560e01c80638da5cb5b116100595780638da5cb5b14610137578063941b055b1461016257806395a0f9c71461018b578063ae5310f6146101b4578063f2fde38b146101d057610086565b80634579268a1461008b57806349b3709f146100cc57806362b7f94e146100f7578063715018a614610120575b600080fd5b34801561009757600080fd5b506100b260048036038101906100ad919061109d565b6101f9565b6040516100c3959493929190611135565b60405180910390f35b3480156100d857600080fd5b506100e1610271565b6040516100ee9190611246565b60405180910390f35b34801561010357600080fd5b5061011e60048036038101906101199190611294565b6103ce565b005b34801561012c57600080fd5b5061013561048e565b005b34801561014357600080fd5b5061014c610516565b60405161015991906112c1565b60405180910390f35b34801561016e57600080fd5b50610189600480360381019061018491906112dc565b61053f565b005b34801561019757600080fd5b506101b260048036038101906101ad919061109d565b61095f565b005b6101ce60048036038101906101c9919061109d565b610b6a565b005b3480156101dc57600080fd5b506101f760048036038101906101f29190611294565b610e9e565b005b6000806000806000806003600088815260200190815260200160002090508060000160009054906101000a900473ffffffffffffffffffffffffffffffffffffffff1695508060010154945080600201549350806003015492508060040160009054906101000a900460ff1691505091939590929450565b6060600060028054905014156102d257600067ffffffffffffffff81111561029c5761029b61131c565b5b6040519080825280602002602001820160405280156102ca5781602001602082028036833780820191505090505b5090506103cb565b600060028054905067ffffffffffffffff8111156102f3576102f261131c565b5b6040519080825280602002602001820160405280156103215781602001602082028036833780820191505090505b50905060005b6002805490508110156103c557600281815481106103485761034761134b565b5b906000526020600020906005020160040160009054906101000a900460ff16156103b257600281815481106103805761037f61134b565b5b9060005260206000209060050201600301548282815181106103a5576103a461134b565b5b6020026020010181815250505b80806103bd906113a9565b915050610327565b50809150505b90565b6103d6610f96565b73ffffffffffffffffffffffffffffffffffffffff166103f4610516565b73ffffffffffffffffffffffffffffffffffffffff161461044a576040517f08c379a00000000000000000000000000000000000000000000000000000000081526004016104419061144f565b60405180910390fd5b80600160006101000a81548173ffffffffffffffffffffffffffffffffffffffff021916908373ffffffffffffffffffffffffffffffffffffffff16021790555050565b610496610f96565b73ffffffffffffffffffffffffffffffffffffffff166104b4610516565b73ffffffffffffffffffffffffffffffffffffffff161461050a576040517f08c379a00000000000000000000000000000000000000000000000000000000081526004016105019061144f565b60405180910390fd5b6105146000610f9e565b565b60008060009054906101000a900473ffffffffffffffffffffffffffffffffffffffff16905090565b3373ffffffffffffffffffffffffffffffffffffffff16600160009054906101000a900473ffffffffffffffffffffffffffffffffffffffff1673ffffffffffffffffffffffffffffffffffffffff16636352211e836040518263ffffffff1660e01b81526004016105b1919061146f565b602060405180830381865afa1580156105ce573d6000803e3d6000fd5b505050506040513d601f19601f820116820180604052508101906105f2919061149f565b73ffffffffffffffffffffffffffffffffffffffff1614610648576040517f08c379a000000000000000000000000000000000000000000000000000000000815260040161063f9061153e565b60405180910390fd5b6003600082815260200190815260200160002060040160009054906101000a900460ff16156106ac576040517f08c379a00000000000000000000000000000000000000000000000000000000081526004016106a3906115d0565b60405180910390fd5b600160009054906101000a900473ffffffffffffffffffffffffffffffffffffffff1673ffffffffffffffffffffffffffffffffffffffff1663e985e9c533306040518363ffffffff1660e01b81526004016107099291906115f0565b602060405180830381865afa158015610726573d6000803e3d6000fd5b505050506040513d601f19601f8201168201806040525081019061074a9190611645565b610789576040517f08c379a0000000000000000000000000000000000000000000000000000000008152600401610780906116e4565b60405180910390fd5b60006040518060a001604052803373ffffffffffffffffffffffffffffffffffffffff1681526020018481526020016002805490508152602001838152602001600115158152509050600281908060018154018082558091505060019003906000526020600020906005020160009091909190915060008201518160000160006101000a81548173ffffffffffffffffffffffffffffffffffffffff021916908373ffffffffffffffffffffffffffffffffffffffff16021790555060208201518160010155604082015181600201556060820151816003015560808201518160040160006101000a81548160ff0219169083151502179055505050806003600084815260200190815260200160002060008201518160000160006101000a81548173ffffffffffffffffffffffffffffffffffffffff021916908373ffffffffffffffffffffffffffffffffffffffff16021790555060208201518160010155604082015181600201556060820151816003015560808201518160040160006101000a81548160ff0219169083151502179055509050507fd99e4fad9ad6313b1feb588fa8e605e3a9873172f2024330c35dd2b4041a43863383604051610952929190611750565b60405180910390a1505050565b6000600360008381526020019081526020016000206040518060a00160405290816000820160009054906101000a900473ffffffffffffffffffffffffffffffffffffffff1673ffffffffffffffffffffffffffffffffffffffff1673ffffffffffffffffffffffffffffffffffffffff1681526020016001820154815260200160028201548152602001600382015481526020016004820160009054906101000a900460ff16151515158152505090503373ffffffffffffffffffffffffffffffffffffffff16816000015173ffffffffffffffffffffffffffffffffffffffff1614610a82576040517f08c379a0000000000000000000000000000000000000000000000000000000008152600401610a79906117fe565b60405180910390fd5b60006002826040015181548110610a9c57610a9b61134b565b5b906000526020600020906005020160040160006101000a81548160ff02191690831515021790555060036000838152602001908152602001600020600080820160006101000a81549073ffffffffffffffffffffffffffffffffffffffff02191690556001820160009055600282016000905560038201600090556004820160006101000a81549060ff021916905550507fd99e4fad9ad6313b1feb588fa8e605e3a9873172f2024330c35dd2b4041a43863383604051610b5e92919061186a565b60405180910390a15050565b6000600360008381526020019081526020016000206040518060a00160405290816000820160009054906101000a900473ffffffffffffffffffffffffffffffffffffffff1673ffffffffffffffffffffffffffffffffffffffff1673ffffffffffffffffffffffffffffffffffffffff1681526020016001820154815260200160028201548152602001600382015481526020016004820160009054906101000a900460ff161515151581525050905080602001513414610c61576040517f08c379a0000000000000000000000000000000000000000000000000000000008152600401610c58906118f2565b60405180910390fd5b6003600083815260200190815260200160002060040160009054906101000a900460ff16610cc4576040517f08c379a0000000000000000000000000000000000000000000000000000000008152600401610cbb90611984565b60405180910390fd5b60006002826040015181548110610cde57610cdd61134b565b5b906000526020600020906005020160040160006101000a81548160ff02191690831515021790555060036000838152602001908152602001600020600080820160006101000a81549073ffffffffffffffffffffffffffffffffffffffff02191690556001820160009055600282016000905560038201600090556004820160006101000a81549060ff02191690555050600081602001511115610dcc57806000015173ffffffffffffffffffffffffffffffffffffffff166108fc82602001519081150290604051600060405180830381858888f19350505050158015610dca573d6000803e3d6000fd5b505b600160009054906101000a900473ffffffffffffffffffffffffffffffffffffffff1673ffffffffffffffffffffffffffffffffffffffff166323b872dd826000015133856040518463ffffffff1660e01b8152600401610e2f93929190611a03565b600060405180830381600087803b158015610e4957600080fd5b505af1158015610e5d573d6000803e3d6000fd5b505050507fd99e4fad9ad6313b1feb588fa8e605e3a9873172f2024330c35dd2b4041a43863383604051610e92929190611a86565b60405180910390a15050565b610ea6610f96565b73ffffffffffffffffffffffffffffffffffffffff16610ec4610516565b73ffffffffffffffffffffffffffffffffffffffff1614610f1a576040517f08c379a0000000000000000000000000000000000000000000000000000000008152600401610f119061144f565b60405180910390fd5b600073ffffffffffffffffffffffffffffffffffffffff168173ffffffffffffffffffffffffffffffffffffffff161415610f8a576040517f08c379a0000000000000000000000000000000000000000000000000000000008152600401610f8190611b34565b60405180910390fd5b610f9381610f9e565b50565b600033905090565b60008060009054906101000a900473ffffffffffffffffffffffffffffffffffffffff169050816000806101000a81548173ffffffffffffffffffffffffffffffffffffffff021916908373ffffffffffffffffffffffffffffffffffffffff1602179055508173ffffffffffffffffffffffffffffffffffffffff168173ffffffffffffffffffffffffffffffffffffffff167f8be0079c531659141344cd1fd0a4f28419497f9722a3daafe3b4186f6b6457e060405160405180910390a35050565b600080fd5b6000819050919050565b61107a81611067565b811461108557600080fd5b50565b60008135905061109781611071565b92915050565b6000602082840312156110b3576110b2611062565b5b60006110c184828501611088565b91505092915050565b600073ffffffffffffffffffffffffffffffffffffffff82169050919050565b60006110f5826110ca565b9050919050565b611105816110ea565b82525050565b61111481611067565b82525050565b60008115159050919050565b61112f8161111a565b82525050565b600060a08201905061114a60008301886110fc565b611157602083018761110b565b611164604083018661110b565b611171606083018561110b565b61117e6080830184611126565b9695505050505050565b600081519050919050565b600082825260208201905092915050565b6000819050602082019050919050565b6111bd81611067565b82525050565b60006111cf83836111b4565b60208301905092915050565b6000602082019050919050565b60006111f382611188565b6111fd8185611193565b9350611208836111a4565b8060005b8381101561123957815161122088826111c3565b975061122b836111db565b92505060018101905061120c565b5085935050505092915050565b6000602082019050818103600083015261126081846111e8565b905092915050565b611271816110ea565b811461127c57600080fd5b50565b60008135905061128e81611268565b92915050565b6000602082840312156112aa576112a9611062565b5b60006112b88482850161127f565b91505092915050565b60006020820190506112d660008301846110fc565b92915050565b600080604083850312156112f3576112f2611062565b5b600061130185828601611088565b925050602061131285828601611088565b9150509250929050565b7f4e487b7100000000000000000000000000000000000000000000000000000000600052604160045260246000fd5b7f4e487b7100000000000000000000000000000000000000000000000000000000600052603260045260246000fd5b7f4e487b7100000000000000000000000000000000000000000000000000000000600052601160045260246000fd5b60006113b482611067565b91507fffffffffffffffffffffffffffffffffffffffffffffffffffffffffffffffff8214156113e7576113e661137a565b5b600182019050919050565b600082825260208201905092915050565b7f4f776e61626c653a2063616c6c6572206973206e6f7420746865206f776e6572600082015250565b60006114396020836113f2565b915061144482611403565b602082019050919050565b600060208201905081810360008301526114688161142c565b9050919050565b6000602082019050611484600083018461110b565b92915050565b60008151905061149981611268565b92915050565b6000602082840312156114b5576114b4611062565b5b60006114c38482850161148a565b91505092915050565b7f596f7520617265206e6f7420746865206f776e6572206f66207468697320746f60008201527f6b656e0000000000000000000000000000000000000000000000000000000000602082015250565b60006115286023836113f2565b9150611533826114cc565b604082019050919050565b600060208201905081810360008301526115578161151b565b9050919050565b7f416374697665206f6666657220666f72207468697320746f6b656e206973206160008201527f6c72656164792065786973747300000000000000000000000000000000000000602082015250565b60006115ba602d836113f2565b91506115c58261155e565b604082019050919050565b600060208201905081810360008301526115e9816115ad565b9050919050565b600060408201905061160560008301856110fc565b61161260208301846110fc565b9392505050565b6116228161111a565b811461162d57600080fd5b50565b60008151905061163f81611619565b92915050565b60006020828403121561165b5761165a611062565b5b600061166984828501611630565b91505092915050565b7f436f6e7472616374206e6565647320746f20626520617070726f76656420666960008201527f7273740000000000000000000000000000000000000000000000000000000000602082015250565b60006116ce6023836113f2565b91506116d982611672565b604082019050919050565b600060208201905081810360008301526116fd816116c1565b9050919050565b7f437265617465206f666665720000000000000000000000000000000000000000600082015250565b600061173a600c836113f2565b915061174582611704565b602082019050919050565b600060608201905081810360008301526117698161172d565b905061177860208301856110fc565b611785604083018461110b565b9392505050565b7f596f7520617265206e6f74207468652073656c6c6572206f662074686973207460008201527f6f6b656e00000000000000000000000000000000000000000000000000000000602082015250565b60006117e86024836113f2565b91506117f38261178c565b604082019050919050565b60006020820190508181036000830152611817816117db565b9050919050565b7f52656d6f7665206f666665720000000000000000000000000000000000000000600082015250565b6000611854600c836113f2565b915061185f8261181e565b602082019050919050565b6000606082019050818103600083015261188381611847565b905061189260208301856110fc565b61189f604083018461110b565b9392505050565b7f54686520707269636520697320696e636f727265637400000000000000000000600082015250565b60006118dc6016836113f2565b91506118e7826118a6565b602082019050919050565b6000602082019050818103600083015261190b816118cf565b9050919050565b7f5468657265206973206e6f20616374697665206f6666657220666f722074686960008201527f7320746f6b656e00000000000000000000000000000000000000000000000000602082015250565b600061196e6027836113f2565b915061197982611912565b604082019050919050565b6000602082019050818103600083015261199d81611961565b9050919050565b6000819050919050565b60006119c96119c46119bf846110ca565b6119a4565b6110ca565b9050919050565b60006119db826119ae565b9050919050565b60006119ed826119d0565b9050919050565b6119fd816119e2565b82525050565b6000606082019050611a1860008301866119f4565b611a2560208301856110fc565b611a32604083018461110b565b949350505050565b7f4275790000000000000000000000000000000000000000000000000000000000600082015250565b6000611a706003836113f2565b9150611a7b82611a3a565b602082019050919050565b60006060820190508181036000830152611a9f81611a63565b9050611aae60208301856110fc565b611abb604083018461110b565b9392505050565b7f4f776e61626c653a206e6577206f776e657220697320746865207a65726f206160008201527f6464726573730000000000000000000000000000000000000000000000000000602082015250565b6000611b1e6026836113f2565b9150611b2982611ac2565b604082019050919050565b60006020820190508181036000830152611b4d81611b11565b905091905056fea2646970667358221220643092ffc60d60e8e7c8ec7b69a4b608286dabee794588048d4a0d05f7b1d22364736f6c634300080b0033",
  "immutableReferences": {},
  "source": "pragma solidity ^0.8.0;\r\n\r\n\r\nimport \"../node_modules/@openzeppelin/contracts/access/Ownable.sol\";\r\nimport \"./IKittyMarketplace.sol\";\r\nimport \"./Kittycontract.sol\";\r\n\r\ncontract KittyMarketPlace is Ownable, IKittyMarketPlace {\r\n  Kittycontract private _kittyContract;\r\n\r\n  struct Offer {\r\n    address payable seller;\r\n    uint price;\r\n    uint index;\r\n    uint tokenId;\r\n    bool active;\r\n  }\r\n\r\n  Offer[] offers;\r\n\r\n  mapping (uint=>Offer) tokenIdToOffer;\r\n  \r\n  function setKittyContract(address _kittyContractAddress) onlyOwner public {\r\n    _kittyContract = Kittycontract(_kittyContractAddress);\r\n  }\r\n\r\n  constructor (address _kittyContractAddress) {\r\n    setKittyContract(_kittyContractAddress);\r\n  }\r\n\r\n  function getOffer(uint256 _tokenId) public view returns ( \r\n    address seller, uint price, uint index, uint tokenId, bool active\r\n  ) {\r\n    Offer storage offer = tokenIdToOffer[_tokenId];\r\n    seller = offer.seller;\r\n    price = offer.price;\r\n    index = offer.index;\r\n    tokenId = offer.tokenId;\r\n    active = offer.active;    \r\n  }\r\n\r\n  function getAllTokenOnSale() external view returns(uint[] memory listOfOffers) {\r\n\r\n    if (offers.length == 0) {\r\n      return new uint[](0);\r\n    }\r\n    \r\n    uint[] memory tokenIds = new uint[](offers.length);\r\n\r\n    for (uint i = 0; i < offers.length; i++) {\r\n      if(offers[i].active) {\r\n        tokenIds[i] = offers[i].tokenId;\r\n      }\r\n    }\r\n    return tokenIds;\r\n  }\r\n\r\n  function setOffer(uint _price, uint _tokenId) external {\r\n    // Only the owner of _tokenId can create an offer.\r\n    require(_kittyContract.ownerOf(_tokenId) == msg.sender, 'You are not the owner of this token');\r\n    // There can only be one active offer for a token at a time.\r\n    require(!tokenIdToOffer[_tokenId].active, 'Active offer for this token is already exists');\r\n    // Marketplace contract (this) needs to be an approved operator when the offer is created.\r\n    require(_kittyContract.isApprovedForAll(msg.sender, address(this)), 'Contract needs to be approved first');\r\n\r\n    Offer memory newOffer = Offer(payable(msg.sender), _price, offers.length, _tokenId, true);\r\n\r\n    offers.push(newOffer);\r\n    tokenIdToOffer[_tokenId] = newOffer;\r\n\r\n    emit MarketTransaction(\"Create offer\", msg.sender, _tokenId);\r\n  }\r\n\r\n  function removeOffer(uint _tokenId) external {\r\n    Offer memory offer = tokenIdToOffer[_tokenId];\r\n    // Only the seller of _tokenId can remove an offer.\r\n    require(offer.seller == msg.sender, 'You are not the seller of this token'); \r\n\r\n    offers[offer.index].active = false;\r\n    delete tokenIdToOffer[_tokenId];\r\n\r\n    emit MarketTransaction(\"Remove offer\", msg.sender, _tokenId);\r\n  }\r\n\r\n  function buyKitty(uint256 _tokenId) external payable {\r\n    Offer memory offer = tokenIdToOffer[_tokenId];\r\n    // * Requirement: The msg.value needs to equal the price of _tokenId\r\n    require(msg.value == offer.price, 'The price is incorrect');\r\n    // * Requirement: There must be an active offer for _tokenId\r\n    require(tokenIdToOffer[_tokenId].active, 'There is no active offer for this token');\r\n\r\n    // Deleting token from the mappping and arr before paying to prefent reentrancy\r\n    offers[offer.index].active = false;\r\n    delete tokenIdToOffer[_tokenId];\r\n\r\n    // Transfer the funds to the seller\r\n    if (offer.price > 0) {\r\n      offer.seller.transfer(offer.price);\r\n    }\r\n\r\n    // transfer ownership of the kitty\r\n    _kittyContract.transferFrom(offer.seller, msg.sender, _tokenId);    \r\n\r\n    emit MarketTransaction(\"Buy\", msg.sender, _tokenId);\r\n  }\r\n\r\n}\r\n\r\n  ",
  "sourcePath": "C:\\\\crypto_kitties_clone\\contracts\\Marketplace.sol",
  "compiler": {
    "name": "solc",
    "version": "0.8.11+commit.d7f03943.Emscripten.clang"
  },
  "schemaVersion": "3.4.5",
  "updatedAt": "2022-05-12T12:15:20.823Z",
  "networkType": "ethereum",
  "devdoc": {
    "kind": "dev",
    "methods": {
      "owner()": {
        "details": "Returns the address of the current owner."
      },
      "renounceOwnership()": {
        "details": "Leaves the contract without owner. It will not be possible to call `onlyOwner` functions anymore. Can only be called by the current owner. NOTE: Renouncing ownership will leave the contract without an owner, thereby removing any functionality that is only available to the owner."
      },
      "transferOwnership(address)": {
        "details": "Transfers ownership of the contract to a new account (`newOwner`). Can only be called by the current owner."
      }
    },
    "version": 1
  },
  "userdoc": {
    "kind": "user",
    "methods": {
      "buyKitty(uint256)": {
        "notice": "Executes the purchase of _tokenId. Sends the funds to the seller and transfers the token using transferFrom in Kittycontract. Emits the MarketTransaction event with txType \"Buy\". Requirement: The msg.value needs to equal the price of _tokenId Requirement: There must be an active offer for _tokenId"
      },
      "getAllTokenOnSale()": {
        "notice": "Get all tokenId's that are currently for sale. Returns an empty array if none exist."
      },
      "getOffer(uint256)": {
        "notice": "Get the details about a offer for _tokenId. Throws an error if there is no active offer for _tokenId."
      },
      "removeOffer(uint256)": {
        "notice": "Removes an existing offer. Emits the MarketTransaction event with txType \"Remove offer\" Requirement: Only the seller of _tokenId can remove an offer."
      },
      "setKittyContract(address)": {
        "notice": "Set the current KittyContract address and initialize the instance of Kittycontract. Requirement: Only the contract owner can call."
      },
      "setOffer(uint256,uint256)": {
        "notice": "Creates a new offer for _tokenId for the price _price. Emits the MarketTransaction event with txType \"Create offer\" Requirement: Only the owner of _tokenId can create an offer. Requirement: There can only be one active offer for a token at a time. Requirement: Marketplace contract (this) needs to be an approved operator when the offer is created."
      }
    },
    "version": 1
  }
}