{
  "contractName": "KittyMarketPlace",
  "abi": [
    {
      "inputs": [
        {
          "internalType": "address",
          "name": "_kittyContractAddress",
          "type": "address"
        }
      ],
      "stateMutability": "nonpayable",
      "type": "constructor"
    },
    {
      "anonymous": false,
      "inputs": [
        {
          "indexed": false,
          "internalType": "string",
          "name": "TxType",
          "type": "string"
        },
        {
          "indexed": false,
          "internalType": "address",
          "name": "owner",
          "type": "address"
        },
        {
          "indexed": false,
          "internalType": "uint256",
          "name": "tokenId",
          "type": "uint256"
        }
      ],
      "name": "MarketTransaction",
      "type": "event"
    },
    {
      "anonymous": false,
      "inputs": [
        {
          "indexed": true,
          "internalType": "address",
          "name": "previousOwner",
          "type": "address"
        },
        {
          "indexed": true,
          "internalType": "address",
          "name": "newOwner",
          "type": "address"
        }
      ],
      "name": "OwnershipTransferred",
      "type": "event"
    },
    {
      "inputs": [],
      "name": "owner",
      "outputs": [
        {
          "internalType": "address",
          "name": "",
          "type": "address"
        }
      ],
      "stateMutability": "view",
      "type": "function",
      "constant": true
    },
    {
      "inputs": [],
      "name": "renounceOwnership",
      "outputs": [],
      "stateMutability": "nonpayable",
      "type": "function"
    },
    {
      "inputs": [
        {
          "internalType": "address",
          "name": "newOwner",
          "type": "address"
        }
      ],
      "name": "transferOwnership",
      "outputs": [],
      "stateMutability": "nonpayable",
      "type": "function"
    },
    {
      "inputs": [
        {
          "internalType": "address",
          "name": "_kittyContractAddress",
          "type": "address"
        }
      ],
      "name": "setKittyContract",
      "outputs": [],
      "stateMutability": "nonpayable",
      "type": "function"
    },
    {
      "inputs": [
        {
          "internalType": "uint256",
          "name": "_tokenId",
          "type": "uint256"
        }
      ],
      "name": "getOffer",
      "outputs": [
        {
          "internalType": "address",
          "name": "seller",
          "type": "address"
        },
        {
          "internalType": "uint256",
          "name": "price",
          "type": "uint256"
        },
        {
          "internalType": "uint256",
          "name": "index",
          "type": "uint256"
        },
        {
          "internalType": "uint256",
          "name": "tokenId",
          "type": "uint256"
        },
        {
          "internalType": "bool",
          "name": "active",
          "type": "bool"
        }
      ],
      "stateMutability": "view",
      "type": "function",
      "constant": true
    },
    {
      "inputs": [],
      "name": "getAllTokenOnSale",
      "outputs": [
        {
          "internalType": "uint256[]",
          "name": "listOfOffers",
          "type": "uint256[]"
        }
      ],
      "stateMutability": "view",
      "type": "function",
      "constant": true
    },
    {
      "inputs": [
        {
          "internalType": "uint256",
          "name": "_price",
          "type": "uint256"
        },
        {
          "internalType": "uint256",
          "name": "_tokenId",
          "type": "uint256"
        }
      ],
      "name": "setOffer",
      "outputs": [],
      "stateMutability": "nonpayable",
      "type": "function"
    },
    {
      "inputs": [
        {
          "internalType": "uint256",
          "name": "_tokenId",
          "type": "uint256"
        }
      ],
      "name": "removeOffer",
      "outputs": [],
      "stateMutability": "nonpayable",
      "type": "function"
    },
    {
      "inputs": [
        {
          "internalType": "uint256",
          "name": "_tokenId",
          "type": "uint256"
        }
      ],
      "name": "buyKitty",
      "outputs": [],
      "stateMutability": "payable",
      "type": "function",
      "payable": true
    }
  ],
  "bytecode": "0x60806040523480156200001157600080fd5b5060405162001f3438038062001f348339818101604052810190620000379190620002a1565b620000576200004b6200006f60201b60201c565b6200007760201b60201c565b62000068816200013b60201b60201c565b5062000356565b600033905090565b60008060009054906101000a900473ffffffffffffffffffffffffffffffffffffffff169050816000806101000a81548173ffffffffffffffffffffffffffffffffffffffff021916908373ffffffffffffffffffffffffffffffffffffffff1602179055508173ffffffffffffffffffffffffffffffffffffffff168173ffffffffffffffffffffffffffffffffffffffff167f8be0079c531659141344cd1fd0a4f28419497f9722a3daafe3b4186f6b6457e060405160405180910390a35050565b6200014b6200006f60201b60201c565b73ffffffffffffffffffffffffffffffffffffffff16620001716200020e60201b60201c565b73ffffffffffffffffffffffffffffffffffffffff1614620001ca576040517f08c379a0000000000000000000000000000000000000000000000000000000008152600401620001c19062000334565b60405180910390fd5b80600160006101000a81548173ffffffffffffffffffffffffffffffffffffffff021916908373ffffffffffffffffffffffffffffffffffffffff16021790555050565b60008060009054906101000a900473ffffffffffffffffffffffffffffffffffffffff16905090565b600080fd5b600073ffffffffffffffffffffffffffffffffffffffff82169050919050565b600062000269826200023c565b9050919050565b6200027b816200025c565b81146200028757600080fd5b50565b6000815190506200029b8162000270565b92915050565b600060208284031215620002ba57620002b962000237565b5b6000620002ca848285016200028a565b91505092915050565b600082825260208201905092915050565b7f4f776e61626c653a2063616c6c6572206973206e6f7420746865206f776e6572600082015250565b60006200031c602083620002d3565b91506200032982620002e4565b602082019050919050565b600060208201905081810360008301526200034f816200030d565b9050919050565b611bce80620003666000396000f3fe6080604052600436106100865760003560e01c80638da5cb5b116100595780638da5cb5b14610137578063941b055b1461016257806395a0f9c71461018b578063ae5310f6146101b4578063f2fde38b146101d057610086565b80634579268a1461008b57806349b3709f146100cc57806362b7f94e146100f7578063715018a614610120575b600080fd5b34801561009757600080fd5b506100b260048036038101906100ad91906110e1565b6101f9565b6040516100c3959493929190611179565b60405180910390f35b3480156100d857600080fd5b506100e1610271565b6040516100ee919061128a565b60405180910390f35b34801561010357600080fd5b5061011e600480360381019061011991906112d8565b6103ce565b005b34801561012c57600080fd5b5061013561048e565b005b34801561014357600080fd5b5061014c610516565b6040516101599190611305565b60405180910390f35b34801561016e57600080fd5b5061018960048036038101906101849190611320565b61053f565b005b34801561019757600080fd5b506101b260048036038101906101ad91906110e1565b6109a3565b005b6101ce60048036038101906101c991906110e1565b610bae565b005b3480156101dc57600080fd5b506101f760048036038101906101f291906112d8565b610ee2565b005b6000806000806000806003600088815260200190815260200160002090508060000160009054906101000a900473ffffffffffffffffffffffffffffffffffffffff1695508060010154945080600201549350806003015492508060040160009054906101000a900460ff1691505091939590929450565b6060600060028054905014156102d257600067ffffffffffffffff81111561029c5761029b611360565b5b6040519080825280602002602001820160405280156102ca5781602001602082028036833780820191505090505b5090506103cb565b600060028054905067ffffffffffffffff8111156102f3576102f2611360565b5b6040519080825280602002602001820160405280156103215781602001602082028036833780820191505090505b50905060005b6002805490508110156103c557600281815481106103485761034761138f565b5b906000526020600020906005020160040160009054906101000a900460ff16156103b257600281815481106103805761037f61138f565b5b9060005260206000209060050201600301548282815181106103a5576103a461138f565b5b6020026020010181815250505b80806103bd906113ed565b915050610327565b50809150505b90565b6103d6610fda565b73ffffffffffffffffffffffffffffffffffffffff166103f4610516565b73ffffffffffffffffffffffffffffffffffffffff161461044a576040517f08c379a000000000000000000000000000000000000000000000000000000000815260040161044190611493565b60405180910390fd5b80600160006101000a81548173ffffffffffffffffffffffffffffffffffffffff021916908373ffffffffffffffffffffffffffffffffffffffff16021790555050565b610496610fda565b73ffffffffffffffffffffffffffffffffffffffff166104b4610516565b73ffffffffffffffffffffffffffffffffffffffff161461050a576040517f08c379a000000000000000000000000000000000000000000000000000000000815260040161050190611493565b60405180910390fd5b6105146000610fe2565b565b60008060009054906101000a900473ffffffffffffffffffffffffffffffffffffffff16905090565b3373ffffffffffffffffffffffffffffffffffffffff16600160009054906101000a900473ffffffffffffffffffffffffffffffffffffffff1673ffffffffffffffffffffffffffffffffffffffff16636352211e836040518263ffffffff1660e01b81526004016105b191906114b3565b602060405180830381865afa1580156105ce573d6000803e3d6000fd5b505050506040513d601f19601f820116820180604052508101906105f291906114e3565b73ffffffffffffffffffffffffffffffffffffffff1614610648576040517f08c379a000000000000000000000000000000000000000000000000000000000815260040161063f90611582565b60405180910390fd5b6003600082815260200190815260200160002060040160009054906101000a900460ff16156106ac576040517f08c379a00000000000000000000000000000000000000000000000000000000081526004016106a390611614565b60405180910390fd5b600160009054906101000a900473ffffffffffffffffffffffffffffffffffffffff1673ffffffffffffffffffffffffffffffffffffffff1663e985e9c533306040518363ffffffff1660e01b8152600401610709929190611634565b602060405180830381865afa158015610726573d6000803e3d6000fd5b505050506040513d601f19601f8201168201806040525081019061074a9190611689565b610789576040517f08c379a000000000000000000000000000000000000000000000000000000000815260040161078090611728565b60405180910390fd5b60008214156107cd576040517f08c379a00000000000000000000000000000000000000000000000000000000081526004016107c490611728565b60405180910390fd5b60006040518060a001604052803373ffffffffffffffffffffffffffffffffffffffff1681526020018481526020016002805490508152602001838152602001600115158152509050600281908060018154018082558091505060019003906000526020600020906005020160009091909190915060008201518160000160006101000a81548173ffffffffffffffffffffffffffffffffffffffff021916908373ffffffffffffffffffffffffffffffffffffffff16021790555060208201518160010155604082015181600201556060820151816003015560808201518160040160006101000a81548160ff0219169083151502179055505050806003600084815260200190815260200160002060008201518160000160006101000a81548173ffffffffffffffffffffffffffffffffffffffff021916908373ffffffffffffffffffffffffffffffffffffffff16021790555060208201518160010155604082015181600201556060820151816003015560808201518160040160006101000a81548160ff0219169083151502179055509050507fd99e4fad9ad6313b1feb588fa8e605e3a9873172f2024330c35dd2b4041a43863383604051610996929190611794565b60405180910390a1505050565b6000600360008381526020019081526020016000206040518060a00160405290816000820160009054906101000a900473ffffffffffffffffffffffffffffffffffffffff1673ffffffffffffffffffffffffffffffffffffffff1673ffffffffffffffffffffffffffffffffffffffff1681526020016001820154815260200160028201548152602001600382015481526020016004820160009054906101000a900460ff16151515158152505090503373ffffffffffffffffffffffffffffffffffffffff16816000015173ffffffffffffffffffffffffffffffffffffffff1614610ac6576040517f08c379a0000000000000000000000000000000000000000000000000000000008152600401610abd90611842565b60405180910390fd5b60006002826040015181548110610ae057610adf61138f565b5b906000526020600020906005020160040160006101000a81548160ff02191690831515021790555060036000838152602001908152602001600020600080820160006101000a81549073ffffffffffffffffffffffffffffffffffffffff02191690556001820160009055600282016000905560038201600090556004820160006101000a81549060ff021916905550507fd99e4fad9ad6313b1feb588fa8e605e3a9873172f2024330c35dd2b4041a43863383604051610ba29291906118ae565b60405180910390a15050565b6000600360008381526020019081526020016000206040518060a00160405290816000820160009054906101000a900473ffffffffffffffffffffffffffffffffffffffff1673ffffffffffffffffffffffffffffffffffffffff1673ffffffffffffffffffffffffffffffffffffffff1681526020016001820154815260200160028201548152602001600382015481526020016004820160009054906101000a900460ff161515151581525050905080602001513414610ca5576040517f08c379a0000000000000000000000000000000000000000000000000000000008152600401610c9c90611936565b60405180910390fd5b6003600083815260200190815260200160002060040160009054906101000a900460ff16610d08576040517f08c379a0000000000000000000000000000000000000000000000000000000008152600401610cff906119c8565b60405180910390fd5b60006002826040015181548110610d2257610d2161138f565b5b906000526020600020906005020160040160006101000a81548160ff02191690831515021790555060036000838152602001908152602001600020600080820160006101000a81549073ffffffffffffffffffffffffffffffffffffffff02191690556001820160009055600282016000905560038201600090556004820160006101000a81549060ff02191690555050600081602001511115610e1057806000015173ffffffffffffffffffffffffffffffffffffffff166108fc82602001519081150290604051600060405180830381858888f19350505050158015610e0e573d6000803e3d6000fd5b505b600160009054906101000a900473ffffffffffffffffffffffffffffffffffffffff1673ffffffffffffffffffffffffffffffffffffffff166323b872dd826000015133856040518463ffffffff1660e01b8152600401610e7393929190611a47565b600060405180830381600087803b158015610e8d57600080fd5b505af1158015610ea1573d6000803e3d6000fd5b505050507fd99e4fad9ad6313b1feb588fa8e605e3a9873172f2024330c35dd2b4041a43863383604051610ed6929190611aca565b60405180910390a15050565b610eea610fda565b73ffffffffffffffffffffffffffffffffffffffff16610f08610516565b73ffffffffffffffffffffffffffffffffffffffff1614610f5e576040517f08c379a0000000000000000000000000000000000000000000000000000000008152600401610f5590611493565b60405180910390fd5b600073ffffffffffffffffffffffffffffffffffffffff168173ffffffffffffffffffffffffffffffffffffffff161415610fce576040517f08c379a0000000000000000000000000000000000000000000000000000000008152600401610fc590611b78565b60405180910390fd5b610fd781610fe2565b50565b600033905090565b60008060009054906101000a900473ffffffffffffffffffffffffffffffffffffffff169050816000806101000a81548173ffffffffffffffffffffffffffffffffffffffff021916908373ffffffffffffffffffffffffffffffffffffffff1602179055508173ffffffffffffffffffffffffffffffffffffffff168173ffffffffffffffffffffffffffffffffffffffff167f8be0079c531659141344cd1fd0a4f28419497f9722a3daafe3b4186f6b6457e060405160405180910390a35050565b600080fd5b6000819050919050565b6110be816110ab565b81146110c957600080fd5b50565b6000813590506110db816110b5565b92915050565b6000602082840312156110f7576110f66110a6565b5b6000611105848285016110cc565b91505092915050565b600073ffffffffffffffffffffffffffffffffffffffff82169050919050565b60006111398261110e565b9050919050565b6111498161112e565b82525050565b611158816110ab565b82525050565b60008115159050919050565b6111738161115e565b82525050565b600060a08201905061118e6000830188611140565b61119b602083018761114f565b6111a8604083018661114f565b6111b5606083018561114f565b6111c2608083018461116a565b9695505050505050565b600081519050919050565b600082825260208201905092915050565b6000819050602082019050919050565b611201816110ab565b82525050565b600061121383836111f8565b60208301905092915050565b6000602082019050919050565b6000611237826111cc565b61124181856111d7565b935061124c836111e8565b8060005b8381101561127d5781516112648882611207565b975061126f8361121f565b925050600181019050611250565b5085935050505092915050565b600060208201905081810360008301526112a4818461122c565b905092915050565b6112b58161112e565b81146112c057600080fd5b50565b6000813590506112d2816112ac565b92915050565b6000602082840312156112ee576112ed6110a6565b5b60006112fc848285016112c3565b91505092915050565b600060208201905061131a6000830184611140565b92915050565b60008060408385031215611337576113366110a6565b5b6000611345858286016110cc565b9250506020611356858286016110cc565b9150509250929050565b7f4e487b7100000000000000000000000000000000000000000000000000000000600052604160045260246000fd5b7f4e487b7100000000000000000000000000000000000000000000000000000000600052603260045260246000fd5b7f4e487b7100000000000000000000000000000000000000000000000000000000600052601160045260246000fd5b60006113f8826110ab565b91507fffffffffffffffffffffffffffffffffffffffffffffffffffffffffffffffff82141561142b5761142a6113be565b5b600182019050919050565b600082825260208201905092915050565b7f4f776e61626c653a2063616c6c6572206973206e6f7420746865206f776e6572600082015250565b600061147d602083611436565b915061148882611447565b602082019050919050565b600060208201905081810360008301526114ac81611470565b9050919050565b60006020820190506114c8600083018461114f565b92915050565b6000815190506114dd816112ac565b92915050565b6000602082840312156114f9576114f86110a6565b5b6000611507848285016114ce565b91505092915050565b7f596f7520617265206e6f7420746865206f776e6572206f66207468697320746f60008201527f6b656e0000000000000000000000000000000000000000000000000000000000602082015250565b600061156c602383611436565b915061157782611510565b604082019050919050565b6000602082019050818103600083015261159b8161155f565b9050919050565b7f416374697665206f6666657220666f72207468697320746f6b656e206973206160008201527f6c72656164792065786973747300000000000000000000000000000000000000602082015250565b60006115fe602d83611436565b9150611609826115a2565b604082019050919050565b6000602082019050818103600083015261162d816115f1565b9050919050565b60006040820190506116496000830185611140565b6116566020830184611140565b9392505050565b6116668161115e565b811461167157600080fd5b50565b6000815190506116838161165d565b92915050565b60006020828403121561169f5761169e6110a6565b5b60006116ad84828501611674565b91505092915050565b7f436f6e7472616374206e6565647320746f20626520617070726f76656420666960008201527f7273740000000000000000000000000000000000000000000000000000000000602082015250565b6000611712602383611436565b915061171d826116b6565b604082019050919050565b6000602082019050818103600083015261174181611705565b9050919050565b7f437265617465206f666665720000000000000000000000000000000000000000600082015250565b600061177e600c83611436565b915061178982611748565b602082019050919050565b600060608201905081810360008301526117ad81611771565b90506117bc6020830185611140565b6117c9604083018461114f565b9392505050565b7f596f7520617265206e6f74207468652073656c6c6572206f662074686973207460008201527f6f6b656e00000000000000000000000000000000000000000000000000000000602082015250565b600061182c602483611436565b9150611837826117d0565b604082019050919050565b6000602082019050818103600083015261185b8161181f565b9050919050565b7f52656d6f7665206f666665720000000000000000000000000000000000000000600082015250565b6000611898600c83611436565b91506118a382611862565b602082019050919050565b600060608201905081810360008301526118c78161188b565b90506118d66020830185611140565b6118e3604083018461114f565b9392505050565b7f54686520707269636520697320696e636f727265637400000000000000000000600082015250565b6000611920601683611436565b915061192b826118ea565b602082019050919050565b6000602082019050818103600083015261194f81611913565b9050919050565b7f5468657265206973206e6f20616374697665206f6666657220666f722074686960008201527f7320746f6b656e00000000000000000000000000000000000000000000000000602082015250565b60006119b2602783611436565b91506119bd82611956565b604082019050919050565b600060208201905081810360008301526119e1816119a5565b9050919050565b6000819050919050565b6000611a0d611a08611a038461110e565b6119e8565b61110e565b9050919050565b6000611a1f826119f2565b9050919050565b6000611a3182611a14565b9050919050565b611a4181611a26565b82525050565b6000606082019050611a5c6000830186611a38565b611a696020830185611140565b611a76604083018461114f565b949350505050565b7f4275790000000000000000000000000000000000000000000000000000000000600082015250565b6000611ab4600383611436565b9150611abf82611a7e565b602082019050919050565b60006060820190508181036000830152611ae381611aa7565b9050611af26020830185611140565b611aff604083018461114f565b9392505050565b7f4f776e61626c653a206e6577206f776e657220697320746865207a65726f206160008201527f6464726573730000000000000000000000000000000000000000000000000000602082015250565b6000611b62602683611436565b9150611b6d82611b06565b604082019050919050565b60006020820190508181036000830152611b9181611b55565b905091905056fea2646970667358221220ef7451b6e93143b95f33199bdd887b2f6c9cf0c572a2b0cd42c859ba3813a13464736f6c634300080b0033",
  "immutableReferences": {},
  "source": "pragma solidity ^0.8.0;\r\n\r\nimport \"../node_modules/@openzeppelin/contracts/access/Ownable.sol\";\r\nimport \"./IKittyMarketplace.sol\";\r\nimport \"./Kittycontract.sol\";\r\n\r\ncontract KittyMarketPlace is Ownable, IKittyMarketPlace {\r\n  Kittycontract private _kittyContract;\r\n\r\n  struct Offer {\r\n    address payable seller;\r\n    uint price;\r\n    uint index;\r\n    uint tokenId;\r\n    bool active;\r\n  }\r\n\r\n  Offer[] offers;\r\n\r\n  mapping (uint=>Offer) tokenIdToOffer;\r\n  \r\n  function setKittyContract(address _kittyContractAddress) onlyOwner public {\r\n    _kittyContract = Kittycontract(_kittyContractAddress);\r\n  }\r\n\r\n  constructor (address _kittyContractAddress) {\r\n    setKittyContract(_kittyContractAddress);\r\n  }\r\n\r\n  function getOffer(uint256 _tokenId) public view returns ( \r\n    address seller, uint price, uint index, uint tokenId, bool active\r\n  ) {\r\n    Offer storage offer = tokenIdToOffer[_tokenId];\r\n    seller = offer.seller;\r\n    price = offer.price;\r\n    index = offer.index;\r\n    tokenId = offer.tokenId;\r\n    active = offer.active;    \r\n  }\r\n\r\n  function getAllTokenOnSale() external view returns(uint[] memory listOfOffers) {\r\n\r\n    if (offers.length == 0) {\r\n      return new uint[](0);\r\n    }\r\n    \r\n    uint[] memory tokenIds = new uint[](offers.length);\r\n\r\n    for (uint i = 0; i < offers.length; i++) {\r\n      if(offers[i].active) {\r\n        tokenIds[i] = offers[i].tokenId;\r\n      }\r\n    }\r\n    return tokenIds;\r\n  }\r\n\r\n  function setOffer(uint _price, uint _tokenId) external {\r\n    // Only the owner of _tokenId can create an offer.\r\n    require(_kittyContract.ownerOf(_tokenId) == msg.sender, 'You are not the owner of this token');\r\n    // There can only be one active offer for a token at a time.\r\n    require(!tokenIdToOffer[_tokenId].active, 'Active offer for this token is already exists');\r\n    // Marketplace contract (this) needs to be an approved operator when the offer is created.\r\n    require(_kittyContract.isApprovedForAll(msg.sender, address(this)), 'Contract needs to be approved first');    \r\n    // The order price has to be more than zero\r\n    require(_price != 0, 'Contract needs to be approved first');\r\n\r\n    Offer memory newOffer = Offer(payable(msg.sender), _price, offers.length, _tokenId, true);\r\n\r\n    offers.push(newOffer);\r\n    tokenIdToOffer[_tokenId] = newOffer;\r\n\r\n    emit MarketTransaction(\"Create offer\", msg.sender, _tokenId);\r\n  }\r\n\r\n  function removeOffer(uint _tokenId) external {\r\n    Offer memory offer = tokenIdToOffer[_tokenId];\r\n    // Only the seller of _tokenId can remove an offer.\r\n    require(offer.seller == msg.sender, 'You are not the seller of this token'); \r\n\r\n    offers[offer.index].active = false;\r\n    delete tokenIdToOffer[_tokenId];\r\n\r\n    emit MarketTransaction(\"Remove offer\", msg.sender, _tokenId);\r\n  }\r\n\r\n  function buyKitty(uint256 _tokenId) external payable {\r\n    Offer memory offer = tokenIdToOffer[_tokenId];\r\n    // * Requirement: The msg.value needs to equal the price of _tokenId\r\n    require(msg.value == offer.price, 'The price is incorrect');\r\n    // * Requirement: There must be an active offer for _tokenId\r\n    require(tokenIdToOffer[_tokenId].active, 'There is no active offer for this token');\r\n\r\n    // Deleting token from the mappping and arr before paying to prefent reentrancy\r\n    offers[offer.index].active = false;\r\n    delete tokenIdToOffer[_tokenId];\r\n\r\n    // Transfer the funds to the seller\r\n    if (offer.price > 0) {\r\n      offer.seller.transfer(offer.price);\r\n    }\r\n\r\n    // transfer ownership of the kitty\r\n    _kittyContract.transferFrom(offer.seller, msg.sender, _tokenId);    \r\n\r\n    emit MarketTransaction(\"Buy\", msg.sender, _tokenId);\r\n  }\r\n\r\n}\r\n\r\n  ",
  "sourcePath": "C:\\\\crypto_kitties_clone\\contracts\\Marketplace.sol",
  "compiler": {
    "name": "solc",
    "version": "0.8.11+commit.d7f03943.Emscripten.clang"
  },
  "schemaVersion": "3.4.5",
  "updatedAt": "2022-08-16T13:04:22.201Z",
  "networkType": "ethereum",
  "devdoc": {
    "kind": "dev",
    "methods": {
      "owner()": {
        "details": "Returns the address of the current owner."
      },
      "renounceOwnership()": {
        "details": "Leaves the contract without owner. It will not be possible to call `onlyOwner` functions anymore. Can only be called by the current owner. NOTE: Renouncing ownership will leave the contract without an owner, thereby removing any functionality that is only available to the owner."
      },
      "transferOwnership(address)": {
        "details": "Transfers ownership of the contract to a new account (`newOwner`). Can only be called by the current owner."
      }
    },
    "version": 1
  },
  "userdoc": {
    "kind": "user",
    "methods": {
      "buyKitty(uint256)": {
        "notice": "Executes the purchase of _tokenId. Sends the funds to the seller and transfers the token using transferFrom in Kittycontract. Emits the MarketTransaction event with txType \"Buy\". Requirement: The msg.value needs to equal the price of _tokenId Requirement: There must be an active offer for _tokenId"
      },
      "getAllTokenOnSale()": {
        "notice": "Get all tokenId's that are currently for sale. Returns an empty array if none exist."
      },
      "getOffer(uint256)": {
        "notice": "Get the details about a offer for _tokenId. Throws an error if there is no active offer for _tokenId."
      },
      "removeOffer(uint256)": {
        "notice": "Removes an existing offer. Emits the MarketTransaction event with txType \"Remove offer\" Requirement: Only the seller of _tokenId can remove an offer."
      },
      "setKittyContract(address)": {
        "notice": "Set the current KittyContract address and initialize the instance of Kittycontract. Requirement: Only the contract owner can call."
      },
      "setOffer(uint256,uint256)": {
        "notice": "Creates a new offer for _tokenId for the price _price. Emits the MarketTransaction event with txType \"Create offer\" Requirement: Only the owner of _tokenId can create an offer. Requirement: There can only be one active offer for a token at a time. Requirement: Marketplace contract (this) needs to be an approved operator when the offer is created."
      }
    },
    "version": 1
  }
}