{
  "contractName": "Kittycontract",
  "abi": [
    {
      "inputs": [],
      "stateMutability": "nonpayable",
      "type": "constructor"
    },
    {
      "anonymous": false,
      "inputs": [
        {
          "indexed": true,
          "internalType": "address",
          "name": "owner",
          "type": "address"
        },
        {
          "indexed": true,
          "internalType": "address",
          "name": "approved",
          "type": "address"
        },
        {
          "indexed": true,
          "internalType": "uint256",
          "name": "tokenId",
          "type": "uint256"
        }
      ],
      "name": "Approval",
      "type": "event"
    },
    {
      "anonymous": false,
      "inputs": [
        {
          "indexed": true,
          "internalType": "address",
          "name": "owner",
          "type": "address"
        },
        {
          "indexed": true,
          "internalType": "address",
          "name": "operator",
          "type": "address"
        },
        {
          "indexed": false,
          "internalType": "bool",
          "name": "approved",
          "type": "bool"
        }
      ],
      "name": "ApprovalForAll",
      "type": "event"
    },
    {
      "anonymous": false,
      "inputs": [
        {
          "indexed": false,
          "internalType": "uint256",
          "name": "_mumId",
          "type": "uint256"
        },
        {
          "indexed": false,
          "internalType": "uint256",
          "name": "_dadId",
          "type": "uint256"
        },
        {
          "indexed": false,
          "internalType": "uint256",
          "name": "_generation",
          "type": "uint256"
        },
        {
          "indexed": false,
          "internalType": "uint256",
          "name": "_genes",
          "type": "uint256"
        },
        {
          "indexed": false,
          "internalType": "address",
          "name": "_owner",
          "type": "address"
        }
      ],
      "name": "Birth",
      "type": "event"
    },
    {
      "anonymous": false,
      "inputs": [
        {
          "indexed": true,
          "internalType": "address",
          "name": "previousOwner",
          "type": "address"
        },
        {
          "indexed": true,
          "internalType": "address",
          "name": "newOwner",
          "type": "address"
        }
      ],
      "name": "OwnershipTransferred",
      "type": "event"
    },
    {
      "anonymous": false,
      "inputs": [
        {
          "indexed": true,
          "internalType": "address",
          "name": "from",
          "type": "address"
        },
        {
          "indexed": true,
          "internalType": "address",
          "name": "to",
          "type": "address"
        },
        {
          "indexed": true,
          "internalType": "uint256",
          "name": "tokenId",
          "type": "uint256"
        }
      ],
      "name": "Transfer",
      "type": "event"
    },
    {
      "inputs": [],
      "name": "CREATION_LIMIT_GEN0",
      "outputs": [
        {
          "internalType": "uint256",
          "name": "",
          "type": "uint256"
        }
      ],
      "stateMutability": "view",
      "type": "function",
      "constant": true
    },
    {
      "inputs": [
        {
          "internalType": "address",
          "name": "to",
          "type": "address"
        },
        {
          "internalType": "uint256",
          "name": "tokenId",
          "type": "uint256"
        }
      ],
      "name": "approve",
      "outputs": [],
      "stateMutability": "nonpayable",
      "type": "function"
    },
    {
      "inputs": [
        {
          "internalType": "address",
          "name": "owner",
          "type": "address"
        }
      ],
      "name": "balanceOf",
      "outputs": [
        {
          "internalType": "uint256",
          "name": "",
          "type": "uint256"
        }
      ],
      "stateMutability": "view",
      "type": "function",
      "constant": true
    },
    {
      "inputs": [],
      "name": "gen0Counter",
      "outputs": [
        {
          "internalType": "uint256",
          "name": "",
          "type": "uint256"
        }
      ],
      "stateMutability": "view",
      "type": "function",
      "constant": true
    },
    {
      "inputs": [
        {
          "internalType": "uint256",
          "name": "tokenId",
          "type": "uint256"
        }
      ],
      "name": "getApproved",
      "outputs": [
        {
          "internalType": "address",
          "name": "",
          "type": "address"
        }
      ],
      "stateMutability": "view",
      "type": "function",
      "constant": true
    },
    {
      "inputs": [
        {
          "internalType": "address",
          "name": "owner",
          "type": "address"
        },
        {
          "internalType": "address",
          "name": "operator",
          "type": "address"
        }
      ],
      "name": "isApprovedForAll",
      "outputs": [
        {
          "internalType": "bool",
          "name": "",
          "type": "bool"
        }
      ],
      "stateMutability": "view",
      "type": "function",
      "constant": true
    },
    {
      "inputs": [],
      "name": "name",
      "outputs": [
        {
          "internalType": "string",
          "name": "",
          "type": "string"
        }
      ],
      "stateMutability": "view",
      "type": "function",
      "constant": true
    },
    {
      "inputs": [],
      "name": "owner",
      "outputs": [
        {
          "internalType": "address",
          "name": "",
          "type": "address"
        }
      ],
      "stateMutability": "view",
      "type": "function",
      "constant": true
    },
    {
      "inputs": [
        {
          "internalType": "uint256",
          "name": "tokenId",
          "type": "uint256"
        }
      ],
      "name": "ownerOf",
      "outputs": [
        {
          "internalType": "address",
          "name": "",
          "type": "address"
        }
      ],
      "stateMutability": "view",
      "type": "function",
      "constant": true
    },
    {
      "inputs": [],
      "name": "renounceOwnership",
      "outputs": [],
      "stateMutability": "nonpayable",
      "type": "function"
    },
    {
      "inputs": [
        {
          "internalType": "address",
          "name": "from",
          "type": "address"
        },
        {
          "internalType": "address",
          "name": "to",
          "type": "address"
        },
        {
          "internalType": "uint256",
          "name": "tokenId",
          "type": "uint256"
        }
      ],
      "name": "safeTransferFrom",
      "outputs": [],
      "stateMutability": "nonpayable",
      "type": "function"
    },
    {
      "inputs": [
        {
          "internalType": "address",
          "name": "from",
          "type": "address"
        },
        {
          "internalType": "address",
          "name": "to",
          "type": "address"
        },
        {
          "internalType": "uint256",
          "name": "tokenId",
          "type": "uint256"
        },
        {
          "internalType": "bytes",
          "name": "_data",
          "type": "bytes"
        }
      ],
      "name": "safeTransferFrom",
      "outputs": [],
      "stateMutability": "nonpayable",
      "type": "function"
    },
    {
      "inputs": [
        {
          "internalType": "address",
          "name": "operator",
          "type": "address"
        },
        {
          "internalType": "bool",
          "name": "approved",
          "type": "bool"
        }
      ],
      "name": "setApprovalForAll",
      "outputs": [],
      "stateMutability": "nonpayable",
      "type": "function"
    },
    {
      "inputs": [
        {
          "internalType": "bytes4",
          "name": "interfaceId",
          "type": "bytes4"
        }
      ],
      "name": "supportsInterface",
      "outputs": [
        {
          "internalType": "bool",
          "name": "",
          "type": "bool"
        }
      ],
      "stateMutability": "view",
      "type": "function",
      "constant": true
    },
    {
      "inputs": [],
      "name": "symbol",
      "outputs": [
        {
          "internalType": "string",
          "name": "",
          "type": "string"
        }
      ],
      "stateMutability": "view",
      "type": "function",
      "constant": true
    },
    {
      "inputs": [
        {
          "internalType": "uint256",
          "name": "tokenId",
          "type": "uint256"
        }
      ],
      "name": "tokenURI",
      "outputs": [
        {
          "internalType": "string",
          "name": "",
          "type": "string"
        }
      ],
      "stateMutability": "view",
      "type": "function",
      "constant": true
    },
    {
      "inputs": [
        {
          "internalType": "address",
          "name": "from",
          "type": "address"
        },
        {
          "internalType": "address",
          "name": "to",
          "type": "address"
        },
        {
          "internalType": "uint256",
          "name": "tokenId",
          "type": "uint256"
        }
      ],
      "name": "transferFrom",
      "outputs": [],
      "stateMutability": "nonpayable",
      "type": "function"
    },
    {
      "inputs": [
        {
          "internalType": "address",
          "name": "newOwner",
          "type": "address"
        }
      ],
      "name": "transferOwnership",
      "outputs": [],
      "stateMutability": "nonpayable",
      "type": "function"
    },
    {
      "inputs": [
        {
          "internalType": "address",
          "name": "user",
          "type": "address"
        }
      ],
      "name": "alreadyGotFreeKitty",
      "outputs": [
        {
          "internalType": "bool",
          "name": "",
          "type": "bool"
        }
      ],
      "stateMutability": "view",
      "type": "function",
      "constant": true
    },
    {
      "inputs": [],
      "name": "totalSupply",
      "outputs": [
        {
          "internalType": "uint256",
          "name": "",
          "type": "uint256"
        }
      ],
      "stateMutability": "view",
      "type": "function",
      "constant": true
    },
    {
      "inputs": [
        {
          "internalType": "uint256",
          "name": "id",
          "type": "uint256"
        }
      ],
      "name": "getKitty",
      "outputs": [
        {
          "components": [
            {
              "internalType": "uint256",
              "name": "genes",
              "type": "uint256"
            },
            {
              "internalType": "uint64",
              "name": "birthTime",
              "type": "uint64"
            },
            {
              "internalType": "uint64",
              "name": "breedingReadyTime",
              "type": "uint64"
            },
            {
              "internalType": "uint32",
              "name": "mumId",
              "type": "uint32"
            },
            {
              "internalType": "uint32",
              "name": "dadId",
              "type": "uint32"
            },
            {
              "internalType": "uint16",
              "name": "generation",
              "type": "uint16"
            }
          ],
          "internalType": "struct Kittycontract.Kitty",
          "name": "",
          "type": "tuple"
        }
      ],
      "stateMutability": "view",
      "type": "function",
      "constant": true
    },
    {
      "inputs": [
        {
          "internalType": "address",
          "name": "_owner",
          "type": "address"
        }
      ],
      "name": "getKittyByOwner",
      "outputs": [
        {
          "internalType": "uint256[]",
          "name": "",
          "type": "uint256[]"
        }
      ],
      "stateMutability": "view",
      "type": "function",
      "constant": true
    },
    {
      "inputs": [
        {
          "internalType": "uint256",
          "name": "_genes",
          "type": "uint256"
        }
      ],
      "name": "createKittyGen0",
      "outputs": [],
      "stateMutability": "nonpayable",
      "type": "function"
    },
    {
      "inputs": [
        {
          "internalType": "uint256",
          "name": "_dadId",
          "type": "uint256"
        },
        {
          "internalType": "uint256",
          "name": "_mumId",
          "type": "uint256"
        }
      ],
      "name": "breed",
      "outputs": [
        {
          "internalType": "uint256",
          "name": "",
          "type": "uint256"
        }
      ],
      "stateMutability": "nonpayable",
      "type": "function"
    }
  ],
  "bytecode": "0x6080604052620151806009553480156200001857600080fd5b506040518060400160405280601281526020017f43727970746f4b697474696573436c6f6e6500000000000000000000000000008152506040518060400160405280600381526020017f434b43000000000000000000000000000000000000000000000000000000000081525081600090805190602001906200009d9291906200086c565b508060019080519060200190620000b69291906200086c565b505050620000d9620000cd620000f760201b60201c565b620000ff60201b60201c565b620000f060008060008033620001c560201b60201c565b5062000e1e565b600033905090565b6000600660009054906101000a900473ffffffffffffffffffffffffffffffffffffffff16905081600660006101000a81548173ffffffffffffffffffffffffffffffffffffffff021916908373ffffffffffffffffffffffffffffffffffffffff1602179055508173ffffffffffffffffffffffffffffffffffffffff168173ffffffffffffffffffffffffffffffffffffffff167f8be0079c531659141344cd1fd0a4f28419497f9722a3daafe3b4186f6b6457e060405160405180910390a35050565b6000806040518060c001604052808581526020014267ffffffffffffffff1681526020014267ffffffffffffffff1681526020018863ffffffff1681526020018763ffffffff1681526020018661ffff16815250905060078190806001815401808255809150506001900390600052602060002090600202016000909190919091506000820151816000015560208201518160010160006101000a81548167ffffffffffffffff021916908367ffffffffffffffff16021790555060408201518160010160086101000a81548167ffffffffffffffff021916908367ffffffffffffffff16021790555060608201518160010160106101000a81548163ffffffff021916908363ffffffff16021790555060808201518160010160146101000a81548163ffffffff021916908363ffffffff16021790555060a08201518160010160186101000a81548161ffff021916908361ffff16021790555050506000600160078054905062000338919062000955565b90506200034c84826200039b60201b60201c565b7f7199e1688f07d120d7ec20b11115d87d4ce6352a479110dee4b94ec16f0288a6888888888860405162000385959493929190620009e6565b60405180910390a1809250505095945050505050565b620003bd828260405180602001604052806000815250620003c160201b60201c565b5050565b620003d383836200042f60201b60201c565b620003e860008484846200062960201b60201c565b6200042a576040517f08c379a0000000000000000000000000000000000000000000000000000000008152600401620004219062000aca565b60405180910390fd5b505050565b600073ffffffffffffffffffffffffffffffffffffffff168273ffffffffffffffffffffffffffffffffffffffff161415620004a2576040517f08c379a0000000000000000000000000000000000000000000000000000000008152600401620004999062000b3c565b60405180910390fd5b620004b381620007d360201b60201c565b15620004f6576040517f08c379a0000000000000000000000000000000000000000000000000000000008152600401620004ed9062000bae565b60405180910390fd5b6200050a600083836200083f60201b60201c565b6001600360008473ffffffffffffffffffffffffffffffffffffffff1673ffffffffffffffffffffffffffffffffffffffff16815260200190815260200160002060008282546200055c919062000bd0565b92505081905550816002600083815260200190815260200160002060006101000a81548173ffffffffffffffffffffffffffffffffffffffff021916908373ffffffffffffffffffffffffffffffffffffffff160217905550808273ffffffffffffffffffffffffffffffffffffffff16600073ffffffffffffffffffffffffffffffffffffffff167fddf252ad1be2c89b69c2b068fc378daa952ba7f163c4a11628f55a4df523b3ef60405160405180910390a462000625600083836200084460201b60201c565b5050565b6000620006578473ffffffffffffffffffffffffffffffffffffffff166200084960201b6200138a1760201c565b15620007c6578373ffffffffffffffffffffffffffffffffffffffff1663150b7a0262000689620000f760201b60201c565b8786866040518563ffffffff1660e01b8152600401620006ad949392919062000cd1565b6020604051808303816000875af1925050508015620006ec57506040513d601f19601f82011682018060405250810190620006e9919062000d87565b60015b62000775573d80600081146200071f576040519150601f19603f3d011682016040523d82523d6000602084013e62000724565b606091505b506000815114156200076d576040517f08c379a0000000000000000000000000000000000000000000000000000000008152600401620007649062000aca565b60405180910390fd5b805181602001fd5b63150b7a0260e01b7bffffffffffffffffffffffffffffffffffffffffffffffffffffffff1916817bffffffffffffffffffffffffffffffffffffffffffffffffffffffff191614915050620007cb565b600190505b949350505050565b60008073ffffffffffffffffffffffffffffffffffffffff166002600084815260200190815260200160002060009054906101000a900473ffffffffffffffffffffffffffffffffffffffff1673ffffffffffffffffffffffffffffffffffffffff1614159050919050565b505050565b505050565b6000808273ffffffffffffffffffffffffffffffffffffffff163b119050919050565b8280546200087a9062000de8565b90600052602060002090601f0160209004810192826200089e5760008555620008ea565b82601f10620008b957805160ff1916838001178555620008ea565b82800160010185558215620008ea579182015b82811115620008e9578251825591602001919060010190620008cc565b5b509050620008f99190620008fd565b5090565b5b8082111562000918576000816000905550600101620008fe565b5090565b6000819050919050565b7f4e487b7100000000000000000000000000000000000000000000000000000000600052601160045260246000fd5b600062000962826200091c565b91506200096f836200091c565b92508282101562000985576200098462000926565b5b828203905092915050565b6200099b816200091c565b82525050565b600073ffffffffffffffffffffffffffffffffffffffff82169050919050565b6000620009ce82620009a1565b9050919050565b620009e081620009c1565b82525050565b600060a082019050620009fd600083018862000990565b62000a0c602083018762000990565b62000a1b604083018662000990565b62000a2a606083018562000990565b62000a396080830184620009d5565b9695505050505050565b600082825260208201905092915050565b7f4552433732313a207472616e7366657220746f206e6f6e20455243373231526560008201527f63656976657220696d706c656d656e7465720000000000000000000000000000602082015250565b600062000ab260328362000a43565b915062000abf8262000a54565b604082019050919050565b6000602082019050818103600083015262000ae58162000aa3565b9050919050565b7f4552433732313a206d696e7420746f20746865207a65726f2061646472657373600082015250565b600062000b2460208362000a43565b915062000b318262000aec565b602082019050919050565b6000602082019050818103600083015262000b578162000b15565b9050919050565b7f4552433732313a20746f6b656e20616c7265616479206d696e74656400000000600082015250565b600062000b96601c8362000a43565b915062000ba38262000b5e565b602082019050919050565b6000602082019050818103600083015262000bc98162000b87565b9050919050565b600062000bdd826200091c565b915062000bea836200091c565b9250827fffffffffffffffffffffffffffffffffffffffffffffffffffffffffffffffff0382111562000c225762000c2162000926565b5b828201905092915050565b600081519050919050565b600082825260208201905092915050565b60005b8381101562000c6957808201518184015260208101905062000c4c565b8381111562000c79576000848401525b50505050565b6000601f19601f8301169050919050565b600062000c9d8262000c2d565b62000ca9818562000c38565b935062000cbb81856020860162000c49565b62000cc68162000c7f565b840191505092915050565b600060808201905062000ce86000830187620009d5565b62000cf76020830186620009d5565b62000d06604083018562000990565b818103606083015262000d1a818462000c90565b905095945050505050565b600080fd5b60007fffffffff0000000000000000000000000000000000000000000000000000000082169050919050565b62000d618162000d2a565b811462000d6d57600080fd5b50565b60008151905062000d818162000d56565b92915050565b60006020828403121562000da05762000d9f62000d25565b5b600062000db08482850162000d70565b91505092915050565b7f4e487b7100000000000000000000000000000000000000000000000000000000600052602260045260246000fd5b6000600282049050600182168062000e0157607f821691505b6020821081141562000e185762000e1762000db9565b5b50919050565b613a948062000e2e6000396000f3fe608060405234801561001057600080fd5b50600436106101585760003560e01c806395e6c62f116100c3578063d5a776ca1161007c578063d5a776ca146103d9578063d9ecad7b146103f5578063e985e9c514610425578063e98b7f4d14610455578063ef5e94aa14610485578063f2fde38b146104a357610158565b806395e6c62f146102f3578063a22cb46514610323578063a56eb0cc1461033f578063b48343301461036f578063b88d4fde1461038d578063c87b56dd146103a957610158565b806342842e0e1161011557806342842e0e146102315780636352211e1461024d57806370a082311461027d578063715018a6146102ad5780638da5cb5b146102b757806395d89b41146102d557610158565b806301ffc9a71461015d57806306fdde031461018d578063081812fc146101ab578063095ea7b3146101db57806318160ddd146101f757806323b872dd14610215575b600080fd5b6101776004803603810190610172919061240f565b6104bf565b6040516101849190612457565b60405180910390f35b6101956105a1565b6040516101a2919061250b565b60405180910390f35b6101c560048036038101906101c09190612563565b610633565b6040516101d291906125d1565b60405180910390f35b6101f560048036038101906101f09190612618565b6106b8565b005b6101ff6107d0565b60405161020c9190612667565b60405180910390f35b61022f600480360381019061022a9190612682565b6107dd565b005b61024b60048036038101906102469190612682565b61083d565b005b61026760048036038101906102629190612563565b61085d565b60405161027491906125d1565b60405180910390f35b610297600480360381019061029291906126d5565b61090f565b6040516102a49190612667565b60405180910390f35b6102b56109c7565b005b6102bf610a4f565b6040516102cc91906125d1565b60405180910390f35b6102dd610a79565b6040516102ea919061250b565b60405180910390f35b61030d600480360381019061030891906126d5565b610b0b565b60405161031a91906127c0565b60405180910390f35b61033d6004803603810190610338919061280e565b610bfc565b005b610359600480360381019061035491906126d5565b610c12565b6040516103669190612457565b60405180910390f35b610377610c80565b6040516103849190612667565b60405180910390f35b6103a760048036038101906103a29190612983565b610c85565b005b6103c360048036038101906103be9190612563565b610ce7565b6040516103d0919061250b565b60405180910390f35b6103f360048036038101906103ee9190612563565b610d8e565b005b61040f600480360381019061040a9190612a06565b610ef6565b60405161041c9190612667565b60405180910390f35b61043f600480360381019061043a9190612a46565b6110e2565b60405161044c9190612457565b60405180910390f35b61046f600480360381019061046a9190612563565b611176565b60405161047c9190612b60565b60405180910390f35b61048d61128c565b60405161049a9190612667565b60405180910390f35b6104bd60048036038101906104b891906126d5565b611292565b005b60007f80ac58cd000000000000000000000000000000000000000000000000000000007bffffffffffffffffffffffffffffffffffffffffffffffffffffffff1916827bffffffffffffffffffffffffffffffffffffffffffffffffffffffff1916148061058a57507f5b5e139f000000000000000000000000000000000000000000000000000000007bffffffffffffffffffffffffffffffffffffffffffffffffffffffff1916827bffffffffffffffffffffffffffffffffffffffffffffffffffffffff1916145b8061059a5750610599826113ad565b5b9050919050565b6060600080546105b090612baa565b80601f01602080910402602001604051908101604052809291908181526020018280546105dc90612baa565b80156106295780601f106105fe57610100808354040283529160200191610629565b820191906000526020600020905b81548152906001019060200180831161060c57829003601f168201915b5050505050905090565b600061063e82611417565b61067d576040517f08c379a000000000000000000000000000000000000000000000000000000000815260040161067490612c4e565b60405180910390fd5b6004600083815260200190815260200160002060009054906101000a900473ffffffffffffffffffffffffffffffffffffffff169050919050565b60006106c38261085d565b90508073ffffffffffffffffffffffffffffffffffffffff168373ffffffffffffffffffffffffffffffffffffffff161415610734576040517f08c379a000000000000000000000000000000000000000000000000000000000815260040161072b90612ce0565b60405180910390fd5b8073ffffffffffffffffffffffffffffffffffffffff16610753611483565b73ffffffffffffffffffffffffffffffffffffffff16148061078257506107818161077c611483565b6110e2565b5b6107c1576040517f08c379a00000000000000000000000000000000000000000000000000000000081526004016107b890612d72565b60405180910390fd5b6107cb838361148b565b505050565b6000600780549050905090565b6107ee6107e8611483565b82611544565b61082d576040517f08c379a000000000000000000000000000000000000000000000000000000000815260040161082490612e04565b60405180910390fd5b610838838383611622565b505050565b61085883838360405180602001604052806000815250610c85565b505050565b6000806002600084815260200190815260200160002060009054906101000a900473ffffffffffffffffffffffffffffffffffffffff169050600073ffffffffffffffffffffffffffffffffffffffff168173ffffffffffffffffffffffffffffffffffffffff161415610906576040517f08c379a00000000000000000000000000000000000000000000000000000000081526004016108fd90612e96565b60405180910390fd5b80915050919050565b60008073ffffffffffffffffffffffffffffffffffffffff168273ffffffffffffffffffffffffffffffffffffffff161415610980576040517f08c379a000000000000000000000000000000000000000000000000000000000815260040161097790612f28565b60405180910390fd5b600360008373ffffffffffffffffffffffffffffffffffffffff1673ffffffffffffffffffffffffffffffffffffffff168152602001908152602001600020549050919050565b6109cf611483565b73ffffffffffffffffffffffffffffffffffffffff166109ed610a4f565b73ffffffffffffffffffffffffffffffffffffffff1614610a43576040517f08c379a0000000000000000000000000000000000000000000000000000000008152600401610a3a90612f94565b60405180910390fd5b610a4d6000611889565b565b6000600660009054906101000a900473ffffffffffffffffffffffffffffffffffffffff16905090565b606060018054610a8890612baa565b80601f0160208091040260200160405190810160405280929190818152602001828054610ab490612baa565b8015610b015780601f10610ad657610100808354040283529160200191610b01565b820191906000526020600020905b815481529060010190602001808311610ae457829003601f168201915b5050505050905090565b60606000610b188361090f565b67ffffffffffffffff811115610b3157610b30612858565b5b604051908082528060200260200182016040528015610b5f5781602001602082028036833780820191505090505b5090506000805b600780549050811015610bf1578473ffffffffffffffffffffffffffffffffffffffff16610b938261085d565b73ffffffffffffffffffffffffffffffffffffffff161415610bde5780838381518110610bc357610bc2612fb4565b5b6020026020010181815250508180610bda90613012565b9250505b8080610be990613012565b915050610b66565b508192505050919050565b610c0e610c07611483565b838361194f565b5050565b600060011515600860008473ffffffffffffffffffffffffffffffffffffffff1673ffffffffffffffffffffffffffffffffffffffff16815260200190815260200160002060009054906101000a900460ff1615151415610c765760019050610c7b565b600090505b919050565b601481565b610c96610c90611483565b83611544565b610cd5576040517f08c379a0000000000000000000000000000000000000000000000000000000008152600401610ccc90612e04565b60405180910390fd5b610ce184848484611abc565b50505050565b6060610cf282611417565b610d31576040517f08c379a0000000000000000000000000000000000000000000000000000000008152600401610d28906130cd565b60405180910390fd5b6000610d3b611b18565b90506000815111610d5b5760405180602001604052806000815250610d86565b80610d6584611b2f565b604051602001610d76929190613129565b6040516020818303038152906040525b915050919050565b610d96610a4f565b73ffffffffffffffffffffffffffffffffffffffff163373ffffffffffffffffffffffffffffffffffffffff161415610e3b576014600a5410610e0e576040517f08c379a0000000000000000000000000000000000000000000000000000000008152600401610e05906131bf565b60405180910390fd5b600a6000815480929190610e2190613012565b9190505550610e3560008060008433611c90565b50610ef3565b60001515610e4833610c12565b151514610e8a576040517f08c379a0000000000000000000000000000000000000000000000000000000008152600401610e8190613251565b60405180910390fd5b6001600860003373ffffffffffffffffffffffffffffffffffffffff1673ffffffffffffffffffffffffffffffffffffffff16815260200190815260200160002060006101000a81548160ff021916908315150217905550610ef160008060008433611c90565b505b50565b6000610f00611483565b73ffffffffffffffffffffffffffffffffffffffff16610f1f8461085d565b73ffffffffffffffffffffffffffffffffffffffff16148015610f7c5750610f45611483565b73ffffffffffffffffffffffffffffffffffffffff16610f648361085d565b73ffffffffffffffffffffffffffffffffffffffff16145b610fbb576040517f08c379a0000000000000000000000000000000000000000000000000000000008152600401610fb2906132e3565b60405180910390fd5b600060078481548110610fd157610fd0612fb4565b5b90600052602060002090600202019050600060078481548110610ff757610ff6612fb4565b5b9060005260206000209060020201905061101082611e5a565b8015611021575061102081611e5a565b5b611060576040517f08c379a000000000000000000000000000000000000000000000000000000000815260040161105790613375565b60405180910390fd5b61106982611e89565b61107281611e89565b600061108683600001548360000154611ec4565b905060006110c08460010160189054906101000a900461ffff1661ffff168460010160189054906101000a900461ffff1661ffff16611f18565b90506110d6868883856110d1611483565b611c90565b94505050505092915050565b6000600560008473ffffffffffffffffffffffffffffffffffffffff1673ffffffffffffffffffffffffffffffffffffffff16815260200190815260200160002060008373ffffffffffffffffffffffffffffffffffffffff1673ffffffffffffffffffffffffffffffffffffffff16815260200190815260200160002060009054906101000a900460ff16905092915050565b61117e612349565b6007828154811061119257611191612fb4565b5b90600052602060002090600202016040518060c0016040529081600082015481526020016001820160009054906101000a900467ffffffffffffffff1667ffffffffffffffff1667ffffffffffffffff1681526020016001820160089054906101000a900467ffffffffffffffff1667ffffffffffffffff1667ffffffffffffffff1681526020016001820160109054906101000a900463ffffffff1663ffffffff1663ffffffff1681526020016001820160149054906101000a900463ffffffff1663ffffffff1663ffffffff1681526020016001820160189054906101000a900461ffff1661ffff1661ffff16815250509050919050565b600a5481565b61129a611483565b73ffffffffffffffffffffffffffffffffffffffff166112b8610a4f565b73ffffffffffffffffffffffffffffffffffffffff161461130e576040517f08c379a000000000000000000000000000000000000000000000000000000000815260040161130590612f94565b60405180910390fd5b600073ffffffffffffffffffffffffffffffffffffffff168173ffffffffffffffffffffffffffffffffffffffff16141561137e576040517f08c379a000000000000000000000000000000000000000000000000000000000815260040161137590613407565b60405180910390fd5b61138781611889565b50565b6000808273ffffffffffffffffffffffffffffffffffffffff163b119050919050565b60007f01ffc9a7000000000000000000000000000000000000000000000000000000007bffffffffffffffffffffffffffffffffffffffffffffffffffffffff1916827bffffffffffffffffffffffffffffffffffffffffffffffffffffffff1916149050919050565b60008073ffffffffffffffffffffffffffffffffffffffff166002600084815260200190815260200160002060009054906101000a900473ffffffffffffffffffffffffffffffffffffffff1673ffffffffffffffffffffffffffffffffffffffff1614159050919050565b600033905090565b816004600083815260200190815260200160002060006101000a81548173ffffffffffffffffffffffffffffffffffffffff021916908373ffffffffffffffffffffffffffffffffffffffff160217905550808273ffffffffffffffffffffffffffffffffffffffff166114fe8361085d565b73ffffffffffffffffffffffffffffffffffffffff167f8c5be1e5ebec7d5bd14f71427d1e84f3dd0314c0f7b2291e5b200ac8c7c3b92560405160405180910390a45050565b600061154f82611417565b61158e576040517f08c379a000000000000000000000000000000000000000000000000000000000815260040161158590613499565b60405180910390fd5b60006115998361085d565b90508073ffffffffffffffffffffffffffffffffffffffff168473ffffffffffffffffffffffffffffffffffffffff1614806115db57506115da81856110e2565b5b8061161957508373ffffffffffffffffffffffffffffffffffffffff1661160184610633565b73ffffffffffffffffffffffffffffffffffffffff16145b91505092915050565b8273ffffffffffffffffffffffffffffffffffffffff166116428261085d565b73ffffffffffffffffffffffffffffffffffffffff1614611698576040517f08c379a000000000000000000000000000000000000000000000000000000000815260040161168f9061352b565b60405180910390fd5b600073ffffffffffffffffffffffffffffffffffffffff168273ffffffffffffffffffffffffffffffffffffffff161415611708576040517f08c379a00000000000000000000000000000000000000000000000000000000081526004016116ff906135bd565b60405180910390fd5b611713838383611f64565b61171e60008261148b565b6001600360008573ffffffffffffffffffffffffffffffffffffffff1673ffffffffffffffffffffffffffffffffffffffff168152602001908152602001600020600082825461176e91906135dd565b925050819055506001600360008473ffffffffffffffffffffffffffffffffffffffff1673ffffffffffffffffffffffffffffffffffffffff16815260200190815260200160002060008282546117c59190613611565b92505081905550816002600083815260200190815260200160002060006101000a81548173ffffffffffffffffffffffffffffffffffffffff021916908373ffffffffffffffffffffffffffffffffffffffff160217905550808273ffffffffffffffffffffffffffffffffffffffff168473ffffffffffffffffffffffffffffffffffffffff167fddf252ad1be2c89b69c2b068fc378daa952ba7f163c4a11628f55a4df523b3ef60405160405180910390a4611884838383611f69565b505050565b6000600660009054906101000a900473ffffffffffffffffffffffffffffffffffffffff16905081600660006101000a81548173ffffffffffffffffffffffffffffffffffffffff021916908373ffffffffffffffffffffffffffffffffffffffff1602179055508173ffffffffffffffffffffffffffffffffffffffff168173ffffffffffffffffffffffffffffffffffffffff167f8be0079c531659141344cd1fd0a4f28419497f9722a3daafe3b4186f6b6457e060405160405180910390a35050565b8173ffffffffffffffffffffffffffffffffffffffff168373ffffffffffffffffffffffffffffffffffffffff1614156119be576040517f08c379a00000000000000000000000000000000000000000000000000000000081526004016119b5906136b3565b60405180910390fd5b80600560008573ffffffffffffffffffffffffffffffffffffffff1673ffffffffffffffffffffffffffffffffffffffff16815260200190815260200160002060008473ffffffffffffffffffffffffffffffffffffffff1673ffffffffffffffffffffffffffffffffffffffff16815260200190815260200160002060006101000a81548160ff0219169083151502179055508173ffffffffffffffffffffffffffffffffffffffff168373ffffffffffffffffffffffffffffffffffffffff167f17307eab39ab6107e8899845ad3d59bd9653f200f220920489ca2b5937696c3183604051611aaf9190612457565b60405180910390a3505050565b611ac7848484611622565b611ad384848484611f6e565b611b12576040517f08c379a0000000000000000000000000000000000000000000000000000000008152600401611b0990613745565b60405180910390fd5b50505050565b606060405180602001604052806000815250905090565b60606000821415611b77576040518060400160405280600181526020017f30000000000000000000000000000000000000000000000000000000000000008152509050611c8b565b600082905060005b60008214611ba9578080611b9290613012565b915050600a82611ba29190613794565b9150611b7f565b60008167ffffffffffffffff811115611bc557611bc4612858565b5b6040519080825280601f01601f191660200182016040528015611bf75781602001600182028036833780820191505090505b5090505b60008514611c8457600182611c1091906135dd565b9150600a85611c1f91906137c5565b6030611c2b9190613611565b60f81b818381518110611c4157611c40612fb4565b5b60200101907effffffffffffffffffffffffffffffffffffffffffffffffffffffffffffff1916908160001a905350600a85611c7d9190613794565b9450611bfb565b8093505050505b919050565b6000806040518060c001604052808581526020014267ffffffffffffffff1681526020014267ffffffffffffffff1681526020018863ffffffff1681526020018763ffffffff1681526020018661ffff16815250905060078190806001815401808255809150506001900390600052602060002090600202016000909190919091506000820151816000015560208201518160010160006101000a81548167ffffffffffffffff021916908367ffffffffffffffff16021790555060408201518160010160086101000a81548167ffffffffffffffff021916908367ffffffffffffffff16021790555060608201518160010160106101000a81548163ffffffff021916908363ffffffff16021790555060808201518160010160146101000a81548163ffffffff021916908363ffffffff16021790555060a08201518160010160186101000a81548161ffff021916908361ffff160217905550505060006001600780549050611e0191906135dd565b9050611e0d84826120f6565b7f7199e1688f07d120d7ec20b11115d87d4ce6352a479110dee4b94ec16f0288a68888888888604051611e449594939291906137f6565b60405180910390a1809250505095945050505050565b6000428260010160089054906101000a900467ffffffffffffffff1667ffffffffffffffff1611159050919050565b60095442611e979190613611565b8160010160086101000a81548167ffffffffffffffff021916908367ffffffffffffffff16021790555050565b6000806305f5e10084611ed79190613794565b905060006305f5e10084611eeb91906137c5565b90506000816305f5e10084611f009190613849565b611f0a9190613611565b905080935050505092915050565b6000600182611f279190613611565b600184611f349190613611565b1115611f4e57600183611f479190613611565b9050611f5e565b600182611f5b9190613611565b90505b92915050565b505050565b505050565b6000611f8f8473ffffffffffffffffffffffffffffffffffffffff1661138a565b156120e9578373ffffffffffffffffffffffffffffffffffffffff1663150b7a02611fb8611483565b8786866040518563ffffffff1660e01b8152600401611fda94939291906138f8565b6020604051808303816000875af192505050801561201657506040513d601f19601f820116820180604052508101906120139190613959565b60015b612099573d8060008114612046576040519150601f19603f3d011682016040523d82523d6000602084013e61204b565b606091505b50600081511415612091576040517f08c379a000000000000000000000000000000000000000000000000000000000815260040161208890613745565b60405180910390fd5b805181602001fd5b63150b7a0260e01b7bffffffffffffffffffffffffffffffffffffffffffffffffffffffff1916817bffffffffffffffffffffffffffffffffffffffffffffffffffffffff1916149150506120ee565b600190505b949350505050565b612110828260405180602001604052806000815250612114565b5050565b61211e838361216f565b61212b6000848484611f6e565b61216a576040517f08c379a000000000000000000000000000000000000000000000000000000000815260040161216190613745565b60405180910390fd5b505050565b600073ffffffffffffffffffffffffffffffffffffffff168273ffffffffffffffffffffffffffffffffffffffff1614156121df576040517f08c379a00000000000000000000000000000000000000000000000000000000081526004016121d6906139d2565b60405180910390fd5b6121e881611417565b15612228576040517f08c379a000000000000000000000000000000000000000000000000000000000815260040161221f90613a3e565b60405180910390fd5b61223460008383611f64565b6001600360008473ffffffffffffffffffffffffffffffffffffffff1673ffffffffffffffffffffffffffffffffffffffff16815260200190815260200160002060008282546122849190613611565b92505081905550816002600083815260200190815260200160002060006101000a81548173ffffffffffffffffffffffffffffffffffffffff021916908373ffffffffffffffffffffffffffffffffffffffff160217905550808273ffffffffffffffffffffffffffffffffffffffff16600073ffffffffffffffffffffffffffffffffffffffff167fddf252ad1be2c89b69c2b068fc378daa952ba7f163c4a11628f55a4df523b3ef60405160405180910390a461234560008383611f69565b5050565b6040518060c0016040528060008152602001600067ffffffffffffffff168152602001600067ffffffffffffffff168152602001600063ffffffff168152602001600063ffffffff168152602001600061ffff1681525090565b6000604051905090565b600080fd5b600080fd5b60007fffffffff0000000000000000000000000000000000000000000000000000000082169050919050565b6123ec816123b7565b81146123f757600080fd5b50565b600081359050612409816123e3565b92915050565b600060208284031215612425576124246123ad565b5b6000612433848285016123fa565b91505092915050565b60008115159050919050565b6124518161243c565b82525050565b600060208201905061246c6000830184612448565b92915050565b600081519050919050565b600082825260208201905092915050565b60005b838110156124ac578082015181840152602081019050612491565b838111156124bb576000848401525b50505050565b6000601f19601f8301169050919050565b60006124dd82612472565b6124e7818561247d565b93506124f781856020860161248e565b612500816124c1565b840191505092915050565b6000602082019050818103600083015261252581846124d2565b905092915050565b6000819050919050565b6125408161252d565b811461254b57600080fd5b50565b60008135905061255d81612537565b92915050565b600060208284031215612579576125786123ad565b5b60006125878482850161254e565b91505092915050565b600073ffffffffffffffffffffffffffffffffffffffff82169050919050565b60006125bb82612590565b9050919050565b6125cb816125b0565b82525050565b60006020820190506125e660008301846125c2565b92915050565b6125f5816125b0565b811461260057600080fd5b50565b600081359050612612816125ec565b92915050565b6000806040838503121561262f5761262e6123ad565b5b600061263d85828601612603565b925050602061264e8582860161254e565b9150509250929050565b6126618161252d565b82525050565b600060208201905061267c6000830184612658565b92915050565b60008060006060848603121561269b5761269a6123ad565b5b60006126a986828701612603565b93505060206126ba86828701612603565b92505060406126cb8682870161254e565b9150509250925092565b6000602082840312156126eb576126ea6123ad565b5b60006126f984828501612603565b91505092915050565b600081519050919050565b600082825260208201905092915050565b6000819050602082019050919050565b6127378161252d565b82525050565b6000612749838361272e565b60208301905092915050565b6000602082019050919050565b600061276d82612702565b612777818561270d565b93506127828361271e565b8060005b838110156127b357815161279a888261273d565b97506127a583612755565b925050600181019050612786565b5085935050505092915050565b600060208201905081810360008301526127da8184612762565b905092915050565b6127eb8161243c565b81146127f657600080fd5b50565b600081359050612808816127e2565b92915050565b60008060408385031215612825576128246123ad565b5b600061283385828601612603565b9250506020612844858286016127f9565b9150509250929050565b600080fd5b600080fd5b7f4e487b7100000000000000000000000000000000000000000000000000000000600052604160045260246000fd5b612890826124c1565b810181811067ffffffffffffffff821117156128af576128ae612858565b5b80604052505050565b60006128c26123a3565b90506128ce8282612887565b919050565b600067ffffffffffffffff8211156128ee576128ed612858565b5b6128f7826124c1565b9050602081019050919050565b82818337600083830152505050565b6000612926612921846128d3565b6128b8565b90508281526020810184848401111561294257612941612853565b5b61294d848285612904565b509392505050565b600082601f83011261296a5761296961284e565b5b813561297a848260208601612913565b91505092915050565b6000806000806080858703121561299d5761299c6123ad565b5b60006129ab87828801612603565b94505060206129bc87828801612603565b93505060406129cd8782880161254e565b925050606085013567ffffffffffffffff8111156129ee576129ed6123b2565b5b6129fa87828801612955565b91505092959194509250565b60008060408385031215612a1d57612a1c6123ad565b5b6000612a2b8582860161254e565b9250506020612a3c8582860161254e565b9150509250929050565b60008060408385031215612a5d57612a5c6123ad565b5b6000612a6b85828601612603565b9250506020612a7c85828601612603565b9150509250929050565b600067ffffffffffffffff82169050919050565b612aa381612a86565b82525050565b600063ffffffff82169050919050565b612ac281612aa9565b82525050565b600061ffff82169050919050565b612adf81612ac8565b82525050565b60c082016000820151612afb600085018261272e565b506020820151612b0e6020850182612a9a565b506040820151612b216040850182612a9a565b506060820151612b346060850182612ab9565b506080820151612b476080850182612ab9565b5060a0820151612b5a60a0850182612ad6565b50505050565b600060c082019050612b756000830184612ae5565b92915050565b7f4e487b7100000000000000000000000000000000000000000000000000000000600052602260045260246000fd5b60006002820490506001821680612bc257607f821691505b60208210811415612bd657612bd5612b7b565b5b50919050565b7f4552433732313a20617070726f76656420717565727920666f72206e6f6e657860008201527f697374656e7420746f6b656e0000000000000000000000000000000000000000602082015250565b6000612c38602c8361247d565b9150612c4382612bdc565b604082019050919050565b60006020820190508181036000830152612c6781612c2b565b9050919050565b7f4552433732313a20617070726f76616c20746f2063757272656e74206f776e6560008201527f7200000000000000000000000000000000000000000000000000000000000000602082015250565b6000612cca60218361247d565b9150612cd582612c6e565b604082019050919050565b60006020820190508181036000830152612cf981612cbd565b9050919050565b7f4552433732313a20617070726f76652063616c6c6572206973206e6f74206f7760008201527f6e6572206e6f7220617070726f76656420666f7220616c6c0000000000000000602082015250565b6000612d5c60388361247d565b9150612d6782612d00565b604082019050919050565b60006020820190508181036000830152612d8b81612d4f565b9050919050565b7f4552433732313a207472616e736665722063616c6c6572206973206e6f74206f60008201527f776e6572206e6f7220617070726f766564000000000000000000000000000000602082015250565b6000612dee60318361247d565b9150612df982612d92565b604082019050919050565b60006020820190508181036000830152612e1d81612de1565b9050919050565b7f4552433732313a206f776e657220717565727920666f72206e6f6e657869737460008201527f656e7420746f6b656e0000000000000000000000000000000000000000000000602082015250565b6000612e8060298361247d565b9150612e8b82612e24565b604082019050919050565b60006020820190508181036000830152612eaf81612e73565b9050919050565b7f4552433732313a2062616c616e636520717565727920666f7220746865207a6560008201527f726f206164647265737300000000000000000000000000000000000000000000602082015250565b6000612f12602a8361247d565b9150612f1d82612eb6565b604082019050919050565b60006020820190508181036000830152612f4181612f05565b9050919050565b7f4f776e61626c653a2063616c6c6572206973206e6f7420746865206f776e6572600082015250565b6000612f7e60208361247d565b9150612f8982612f48565b602082019050919050565b60006020820190508181036000830152612fad81612f71565b9050919050565b7f4e487b7100000000000000000000000000000000000000000000000000000000600052603260045260246000fd5b7f4e487b7100000000000000000000000000000000000000000000000000000000600052601160045260246000fd5b600061301d8261252d565b91507fffffffffffffffffffffffffffffffffffffffffffffffffffffffffffffffff8214156130505761304f612fe3565b5b600182019050919050565b7f4552433732314d657461646174613a2055524920717565727920666f72206e6f60008201527f6e6578697374656e7420746f6b656e0000000000000000000000000000000000602082015250565b60006130b7602f8361247d565b91506130c28261305b565b604082019050919050565b600060208201905081810360008301526130e6816130aa565b9050919050565b600081905092915050565b600061310382612472565b61310d81856130ed565b935061311d81856020860161248e565b80840191505092915050565b600061313582856130f8565b915061314182846130f8565b91508190509392505050565b7f416d6f756e74206f662066697273742067656e65726174696f6e206b6974746960008201527f6573206973206578636565646564000000000000000000000000000000000000602082015250565b60006131a9602e8361247d565b91506131b48261314d565b604082019050919050565b600060208201905081810360008301526131d88161319c565b9050919050565b7f596f75206861766520616c72656164792063726561746564207468652066726560008201527f65206b6974747900000000000000000000000000000000000000000000000000602082015250565b600061323b60278361247d565b9150613246826131df565b604082019050919050565b6000602082019050818103600083015261326a8161322e565b9050919050565b7f596f7520617265206e6f7420746865206f776e6572206f66207468656573206b60008201527f6974746965730000000000000000000000000000000000000000000000000000602082015250565b60006132cd60268361247d565b91506132d882613271565b604082019050919050565b600060208201905081810360008301526132fc816132c0565b9050919050565b7f4b69747469657320617265206e6f7420726561647920666f722062726565646960008201527f6e67000000000000000000000000000000000000000000000000000000000000602082015250565b600061335f60228361247d565b915061336a82613303565b604082019050919050565b6000602082019050818103600083015261338e81613352565b9050919050565b7f4f776e61626c653a206e6577206f776e657220697320746865207a65726f206160008201527f6464726573730000000000000000000000000000000000000000000000000000602082015250565b60006133f160268361247d565b91506133fc82613395565b604082019050919050565b60006020820190508181036000830152613420816133e4565b9050919050565b7f4552433732313a206f70657261746f7220717565727920666f72206e6f6e657860008201527f697374656e7420746f6b656e0000000000000000000000000000000000000000602082015250565b6000613483602c8361247d565b915061348e82613427565b604082019050919050565b600060208201905081810360008301526134b281613476565b9050919050565b7f4552433732313a207472616e736665722066726f6d20696e636f72726563742060008201527f6f776e6572000000000000000000000000000000000000000000000000000000602082015250565b600061351560258361247d565b9150613520826134b9565b604082019050919050565b6000602082019050818103600083015261354481613508565b9050919050565b7f4552433732313a207472616e7366657220746f20746865207a65726f2061646460008201527f7265737300000000000000000000000000000000000000000000000000000000602082015250565b60006135a760248361247d565b91506135b28261354b565b604082019050919050565b600060208201905081810360008301526135d68161359a565b9050919050565b60006135e88261252d565b91506135f38361252d565b92508282101561360657613605612fe3565b5b828203905092915050565b600061361c8261252d565b91506136278361252d565b9250827fffffffffffffffffffffffffffffffffffffffffffffffffffffffffffffffff0382111561365c5761365b612fe3565b5b828201905092915050565b7f4552433732313a20617070726f766520746f2063616c6c657200000000000000600082015250565b600061369d60198361247d565b91506136a882613667565b602082019050919050565b600060208201905081810360008301526136cc81613690565b9050919050565b7f4552433732313a207472616e7366657220746f206e6f6e20455243373231526560008201527f63656976657220696d706c656d656e7465720000000000000000000000000000602082015250565b600061372f60328361247d565b915061373a826136d3565b604082019050919050565b6000602082019050818103600083015261375e81613722565b9050919050565b7f4e487b7100000000000000000000000000000000000000000000000000000000600052601260045260246000fd5b600061379f8261252d565b91506137aa8361252d565b9250826137ba576137b9613765565b5b828204905092915050565b60006137d08261252d565b91506137db8361252d565b9250826137eb576137ea613765565b5b828206905092915050565b600060a08201905061380b6000830188612658565b6138186020830187612658565b6138256040830186612658565b6138326060830185612658565b61383f60808301846125c2565b9695505050505050565b60006138548261252d565b915061385f8361252d565b9250817fffffffffffffffffffffffffffffffffffffffffffffffffffffffffffffffff048311821515161561389857613897612fe3565b5b828202905092915050565b600081519050919050565b600082825260208201905092915050565b60006138ca826138a3565b6138d481856138ae565b93506138e481856020860161248e565b6138ed816124c1565b840191505092915050565b600060808201905061390d60008301876125c2565b61391a60208301866125c2565b6139276040830185612658565b818103606083015261393981846138bf565b905095945050505050565b600081519050613953816123e3565b92915050565b60006020828403121561396f5761396e6123ad565b5b600061397d84828501613944565b91505092915050565b7f4552433732313a206d696e7420746f20746865207a65726f2061646472657373600082015250565b60006139bc60208361247d565b91506139c782613986565b602082019050919050565b600060208201905081810360008301526139eb816139af565b9050919050565b7f4552433732313a20746f6b656e20616c7265616479206d696e74656400000000600082015250565b6000613a28601c8361247d565b9150613a33826139f2565b602082019050919050565b60006020820190508181036000830152613a5781613a1b565b905091905056fea2646970667358221220e8deea2ccc0b1ff1caef52663c3c742729bbccd150a54a7b7a67771ccd140c2b64736f6c634300080b0033",
  "immutableReferences": {},
  "source": "pragma solidity ^0.8.0;\r\n\r\nimport \"../node_modules/@openzeppelin/contracts/token/ERC721/ERC721.sol\";\r\nimport \"../node_modules/@openzeppelin/contracts/access/Ownable.sol\";\r\n\r\ncontract Kittycontract is ERC721(\"CryptoKittiesClone\", \"CKC\"), Ownable {\r\n  struct Kitty {\r\n    uint256 genes;\r\n    uint64 birthTime;\r\n    uint64 breedingReadyTime;\r\n    uint32 mumId;\r\n    uint32 dadId;\r\n    uint16 generation;\r\n  }\r\n  \r\n  Kitty[] kitties;\r\n  mapping (address => bool) gotFreeKitty;\r\n  uint breedingCooldown = 1 days;\r\n\r\n  function alreadyGotFreeKitty(address user) view public returns (bool) {\r\n    if (gotFreeKitty[user] == true) {\r\n        return true;\r\n    }    \r\n    return false;    \r\n  } \r\n\r\n  function totalSupply() view public returns (uint) {\r\n    return kitties.length;\r\n  }  \r\n\r\n  function getKitty(uint id) public view returns (Kitty memory) {\r\n    return kitties[id];\r\n  }\r\n\r\n  function getKittyByOwner(address _owner) external view returns(uint[] memory) {\r\n    uint[] memory result = new uint[](balanceOf(_owner));\r\n    uint counter = 0;\r\n    for (uint i = 0; i < kitties.length; i++) {\r\n      if (ownerOf(i) == _owner) {\r\n        result[counter] = i;\r\n        counter++;\r\n      }\r\n    }\r\n    return result;\r\n  }\r\n\r\n  uint public constant CREATION_LIMIT_GEN0 = 20;\r\n  uint public gen0Counter;\r\n  \r\n\r\n  event Birth(\r\n    uint256 _mumId,\r\n    uint256 _dadId,\r\n    uint256 _generation,\r\n    uint256 _genes,\r\n    address _owner\r\n  );\r\n\r\n  // prevents the error with marketplace getAllTokenOnSale()\r\n  constructor () {\r\n    _createKitty(0, 0, 0, 0, msg.sender);\r\n  }\r\n\r\n  function _triggerCooldown(Kitty storage _kitty) internal {\r\n    _kitty.breedingReadyTime = uint64(block.timestamp + breedingCooldown);\r\n  }\r\n\r\n  function _isReady(Kitty storage _kitty) internal view returns (bool) {\r\n    return (_kitty.breedingReadyTime <= block.timestamp);\r\n  }\r\n\r\n  function createKittyGen0(uint256 _genes) public {\r\n      if (msg.sender == owner()) {          \r\n          require(gen0Counter < CREATION_LIMIT_GEN0, 'Amount of first generation kitties is exceeded');\r\n          gen0Counter++;\r\n          _createKitty(0, 0, 0, _genes, msg.sender);\r\n      } else {\r\n          require(alreadyGotFreeKitty(msg.sender) == false, \"You have already created the free kitty\");\r\n          gotFreeKitty[msg.sender] = true; \r\n          _createKitty(0, 0, 0, _genes, msg.sender);\r\n      }\r\n  }  \r\n\r\n  function _createKitty(\r\n    uint256 _mumId,\r\n    uint256 _dadId,\r\n    uint256 _generation,\r\n    uint256 _genes,\r\n    address _owner\r\n  ) private returns (uint256) {\r\n    Kitty memory _kitty = Kitty({\r\n      genes: _genes,\r\n      birthTime: uint64(block.timestamp),\r\n      breedingReadyTime: uint64(block.timestamp),\r\n      // breedingReadyTime: uint64(block.timestamp + breedingCooldown),\r\n      mumId: uint32(_mumId),\r\n      dadId: uint32(_dadId),\r\n      generation: uint16(_generation)\r\n    });\r\n\r\n    kitties.push(_kitty);\r\n    uint256 newKittenId = kitties.length - 1;\r\n\r\n    _safeMint(_owner, newKittenId);\r\n    emit Birth(_mumId, _dadId, _generation, _genes, _owner);\r\n    \r\n    return newKittenId;\r\n  }\r\n\r\n  function breed(uint _dadId, uint _mumId) public returns (uint) {\r\n    //check ownership\r\n    require(ownerOf(_dadId) == _msgSender() && ownerOf(_mumId) == _msgSender(),\r\n     \"You are not the owner of thees kitties\"\r\n     );\r\n\r\n    //get parents data\r\n    Kitty storage dad = kitties[_dadId];\r\n    Kitty storage mum = kitties[_mumId];\r\n\r\n    require(_isReady(dad) && _isReady(mum),\r\n     \"Kitties are not ready for breeding\"\r\n    );    \r\n\r\n    // increase cooldowns for parents\r\n    _triggerCooldown(dad);\r\n    _triggerCooldown(mum);\r\n\r\n    uint newDna = _mixDna(dad.genes, mum.genes);\r\n    //figure out the generation\r\n    uint newGen = _newGeneration(dad.generation, mum.generation);\r\n    //create a new cat with the new props, give it to the msg.sender\r\n    return _createKitty(_mumId, _dadId, newGen, newDna, _msgSender());\r\n  }\r\n\r\n  function _mixDna(uint _dadDna, uint _mumDna) pure internal returns (uint) {\r\n    uint firstHalf = _dadDna / 100000000;\r\n    uint secondHalf = _mumDna % 100000000;\r\n    uint mixedDna = firstHalf * 100000000 + secondHalf;\r\n    return mixedDna;     \r\n  }\r\n\r\n  function _newGeneration(uint _dadGen, uint _mumGen) pure internal returns (uint) {\r\n    if (_dadGen + 1 > _mumGen + 1) {\r\n        return _dadGen + 1;\r\n    } \r\n    return _mumGen + 1;    \r\n  }\r\n}\r\n\r\n",
  "sourcePath": "C:\\\\crypto_kitties_clone\\contracts\\Kittycontract.sol",
  "compiler": {
    "name": "solc",
    "version": "0.8.11+commit.d7f03943.Emscripten.clang"
  },
  "schemaVersion": "3.4.5",
  "updatedAt": "2022-08-16T18:25:24.792Z",
  "networkType": "ethereum",
  "devdoc": {
    "kind": "dev",
    "methods": {
      "approve(address,uint256)": {
        "details": "See {IERC721-approve}."
      },
      "balanceOf(address)": {
        "details": "See {IERC721-balanceOf}."
      },
      "getApproved(uint256)": {
        "details": "See {IERC721-getApproved}."
      },
      "isApprovedForAll(address,address)": {
        "details": "See {IERC721-isApprovedForAll}."
      },
      "name()": {
        "details": "See {IERC721Metadata-name}."
      },
      "owner()": {
        "details": "Returns the address of the current owner."
      },
      "ownerOf(uint256)": {
        "details": "See {IERC721-ownerOf}."
      },
      "renounceOwnership()": {
        "details": "Leaves the contract without owner. It will not be possible to call `onlyOwner` functions anymore. Can only be called by the current owner. NOTE: Renouncing ownership will leave the contract without an owner, thereby removing any functionality that is only available to the owner."
      },
      "safeTransferFrom(address,address,uint256)": {
        "details": "See {IERC721-safeTransferFrom}."
      },
      "safeTransferFrom(address,address,uint256,bytes)": {
        "details": "See {IERC721-safeTransferFrom}."
      },
      "setApprovalForAll(address,bool)": {
        "details": "See {IERC721-setApprovalForAll}."
      },
      "supportsInterface(bytes4)": {
        "details": "See {IERC165-supportsInterface}."
      },
      "symbol()": {
        "details": "See {IERC721Metadata-symbol}."
      },
      "tokenURI(uint256)": {
        "details": "See {IERC721Metadata-tokenURI}."
      },
      "transferFrom(address,address,uint256)": {
        "details": "See {IERC721-transferFrom}."
      },
      "transferOwnership(address)": {
        "details": "Transfers ownership of the contract to a new account (`newOwner`). Can only be called by the current owner."
      }
    },
    "version": 1
  },
  "userdoc": {
    "kind": "user",
    "methods": {},
    "version": 1
  }
}